{
  "_format": "hh-sol-artifact-1",
  "contractName": "TicketNFT",
  "sourceName": "contracts/TicketNFT.sol",
  "abi": [
    {
      "inputs": [
        {
          "internalType": "address",
          "name": "initialOwner",
          "type": "address"
        }
      ],
      "stateMutability": "nonpayable",
      "type": "constructor"
    },
    {
      "inputs": [],
      "name": "ECDSAInvalidSignature",
      "type": "error"
    },
    {
      "inputs": [
        {
          "internalType": "uint256",
          "name": "length",
          "type": "uint256"
        }
      ],
      "name": "ECDSAInvalidSignatureLength",
      "type": "error"
    },
    {
      "inputs": [
        {
          "internalType": "bytes32",
          "name": "s",
          "type": "bytes32"
        }
      ],
      "name": "ECDSAInvalidSignatureS",
      "type": "error"
    },
    {
      "inputs": [
        {
          "internalType": "address",
          "name": "sender",
          "type": "address"
        },
        {
          "internalType": "uint256",
          "name": "tokenId",
          "type": "uint256"
        },
        {
          "internalType": "address",
          "name": "owner",
          "type": "address"
        }
      ],
      "name": "ERC721IncorrectOwner",
      "type": "error"
    },
    {
      "inputs": [
        {
          "internalType": "address",
          "name": "operator",
          "type": "address"
        },
        {
          "internalType": "uint256",
          "name": "tokenId",
          "type": "uint256"
        }
      ],
      "name": "ERC721InsufficientApproval",
      "type": "error"
    },
    {
      "inputs": [
        {
          "internalType": "address",
          "name": "approver",
          "type": "address"
        }
      ],
      "name": "ERC721InvalidApprover",
      "type": "error"
    },
    {
      "inputs": [
        {
          "internalType": "address",
          "name": "operator",
          "type": "address"
        }
      ],
      "name": "ERC721InvalidOperator",
      "type": "error"
    },
    {
      "inputs": [
        {
          "internalType": "address",
          "name": "owner",
          "type": "address"
        }
      ],
      "name": "ERC721InvalidOwner",
      "type": "error"
    },
    {
      "inputs": [
        {
          "internalType": "address",
          "name": "receiver",
          "type": "address"
        }
      ],
      "name": "ERC721InvalidReceiver",
      "type": "error"
    },
    {
      "inputs": [
        {
          "internalType": "address",
          "name": "sender",
          "type": "address"
        }
      ],
      "name": "ERC721InvalidSender",
      "type": "error"
    },
    {
      "inputs": [
        {
          "internalType": "uint256",
          "name": "tokenId",
          "type": "uint256"
        }
      ],
      "name": "ERC721NonexistentToken",
      "type": "error"
    },
    {
      "inputs": [
        {
          "internalType": "address",
          "name": "owner",
          "type": "address"
        }
      ],
      "name": "OwnableInvalidOwner",
      "type": "error"
    },
    {
      "inputs": [
        {
          "internalType": "address",
          "name": "account",
          "type": "address"
        }
      ],
      "name": "OwnableUnauthorizedAccount",
      "type": "error"
    },
    {
      "anonymous": false,
      "inputs": [
        {
          "indexed": true,
          "internalType": "address",
          "name": "owner",
          "type": "address"
        },
        {
          "indexed": true,
          "internalType": "address",
          "name": "approved",
          "type": "address"
        },
        {
          "indexed": true,
          "internalType": "uint256",
          "name": "tokenId",
          "type": "uint256"
        }
      ],
      "name": "Approval",
      "type": "event"
    },
    {
      "anonymous": false,
      "inputs": [
        {
          "indexed": true,
          "internalType": "address",
          "name": "owner",
          "type": "address"
        },
        {
          "indexed": true,
          "internalType": "address",
          "name": "operator",
          "type": "address"
        },
        {
          "indexed": false,
          "internalType": "bool",
          "name": "approved",
          "type": "bool"
        }
      ],
      "name": "ApprovalForAll",
      "type": "event"
    },
    {
      "anonymous": false,
      "inputs": [
        {
          "indexed": true,
          "internalType": "address",
          "name": "previousOwner",
          "type": "address"
        },
        {
          "indexed": true,
          "internalType": "address",
          "name": "newOwner",
          "type": "address"
        }
      ],
      "name": "OwnershipTransferred",
      "type": "event"
    },
    {
      "anonymous": false,
      "inputs": [
        {
          "indexed": true,
          "internalType": "address",
          "name": "owner",
          "type": "address"
        },
        {
          "indexed": true,
          "internalType": "uint256",
          "name": "tokenId",
          "type": "uint256"
        },
        {
          "indexed": true,
          "internalType": "string",
          "name": "eventInfo",
          "type": "string"
        },
        {
          "indexed": false,
          "internalType": "uint256",
          "name": "price",
          "type": "uint256"
        },
        {
          "indexed": false,
          "internalType": "bool",
          "name": "isForSale",
          "type": "bool"
        }
      ],
      "name": "TicketForSale",
      "type": "event"
    },
    {
      "anonymous": false,
      "inputs": [
        {
          "indexed": true,
          "internalType": "address",
          "name": "to",
          "type": "address"
        },
        {
          "indexed": true,
          "internalType": "uint256",
          "name": "tokenId",
          "type": "uint256"
        },
        {
          "indexed": true,
          "internalType": "string",
          "name": "eventInfo",
          "type": "string"
        }
      ],
      "name": "TicketMinted",
      "type": "event"
    },
    {
      "anonymous": false,
      "inputs": [
        {
          "indexed": true,
          "internalType": "address",
          "name": "owner",
          "type": "address"
        },
        {
          "indexed": true,
          "internalType": "address",
          "name": "newOwner",
          "type": "address"
        },
        {
          "indexed": true,
          "internalType": "string",
          "name": "eventInfo",
          "type": "string"
        },
        {
          "indexed": false,
          "internalType": "uint256",
          "name": "price",
          "type": "uint256"
        }
      ],
      "name": "TicketSold",
      "type": "event"
    },
    {
      "anonymous": false,
      "inputs": [
        {
          "indexed": true,
          "internalType": "address",
          "name": "from",
          "type": "address"
        },
        {
          "indexed": true,
          "internalType": "address",
          "name": "to",
          "type": "address"
        },
        {
          "indexed": false,
          "internalType": "uint256",
          "name": "tokenId",
          "type": "uint256"
        }
      ],
      "name": "TicketTransferred",
      "type": "event"
    },
    {
      "anonymous": false,
      "inputs": [
        {
          "indexed": true,
          "internalType": "uint256",
          "name": "tokenId",
          "type": "uint256"
        },
        {
          "indexed": true,
          "internalType": "address",
          "name": "validatedBy",
          "type": "address"
        }
      ],
      "name": "TicketValidated",
      "type": "event"
    },
    {
      "anonymous": false,
      "inputs": [
        {
          "indexed": true,
          "internalType": "address",
          "name": "from",
          "type": "address"
        },
        {
          "indexed": true,
          "internalType": "address",
          "name": "to",
          "type": "address"
        },
        {
          "indexed": true,
          "internalType": "uint256",
          "name": "tokenId",
          "type": "uint256"
        }
      ],
      "name": "Transfer",
      "type": "event"
    },
    {
      "inputs": [
        {
          "internalType": "address",
          "name": "to",
          "type": "address"
        },
        {
          "internalType": "uint256",
          "name": "tokenId",
          "type": "uint256"
        }
      ],
      "name": "approve",
      "outputs": [],
      "stateMutability": "nonpayable",
      "type": "function"
    },
    {
      "inputs": [
        {
          "internalType": "address",
          "name": "owner",
          "type": "address"
        }
      ],
      "name": "balanceOf",
      "outputs": [
        {
          "internalType": "uint256",
          "name": "",
          "type": "uint256"
        }
      ],
      "stateMutability": "view",
      "type": "function"
    },
    {
      "inputs": [
        {
          "internalType": "uint256",
          "name": "tokenId",
          "type": "uint256"
        },
        {
          "internalType": "address",
          "name": "newOwner",
          "type": "address"
        }
      ],
      "name": "buyTicket",
      "outputs": [],
      "stateMutability": "payable",
      "type": "function"
    },
    {
      "inputs": [
        {
          "internalType": "uint256",
          "name": "",
          "type": "uint256"
        }
      ],
      "name": "eventInfo",
      "outputs": [
        {
          "internalType": "string",
          "name": "",
          "type": "string"
        }
      ],
      "stateMutability": "view",
      "type": "function"
    },
    {
      "inputs": [
        {
          "internalType": "uint256",
          "name": "",
          "type": "uint256"
        }
      ],
      "name": "eventOrganizer",
      "outputs": [
        {
          "internalType": "address",
          "name": "",
          "type": "address"
        }
      ],
      "stateMutability": "view",
      "type": "function"
    },
    {
      "inputs": [
        {
          "internalType": "uint256",
          "name": "tokenId",
          "type": "uint256"
        }
      ],
      "name": "getApproved",
      "outputs": [
        {
          "internalType": "address",
          "name": "",
          "type": "address"
        }
      ],
      "stateMutability": "view",
      "type": "function"
    },
    {
      "inputs": [
        {
          "internalType": "uint256",
          "name": "tokenId",
          "type": "uint256"
        }
      ],
      "name": "getTicketInfo",
      "outputs": [
        {
          "internalType": "string",
          "name": "",
          "type": "string"
        }
      ],
      "stateMutability": "view",
      "type": "function"
    },
    {
      "inputs": [
        {
          "internalType": "uint256",
          "name": "tokenId",
          "type": "uint256"
        }
      ],
      "name": "getTicketPrice",
      "outputs": [
        {
          "internalType": "uint256",
          "name": "",
          "type": "uint256"
        }
      ],
      "stateMutability": "view",
      "type": "function"
    },
    {
      "inputs": [
        {
          "internalType": "string",
          "name": "_eventInfo",
          "type": "string"
        }
      ],
      "name": "getTicketsBoughtByEvent",
      "outputs": [
        {
          "internalType": "uint256[]",
          "name": "",
          "type": "uint256[]"
        }
      ],
      "stateMutability": "view",
      "type": "function"
    },
    {
      "inputs": [
        {
          "internalType": "string",
          "name": "_eventInfo",
          "type": "string"
        }
      ],
      "name": "getTicketsOnSaleByEvent",
      "outputs": [
        {
          "internalType": "uint256[]",
          "name": "",
          "type": "uint256[]"
        }
      ],
      "stateMutability": "view",
      "type": "function"
    },
    {
      "inputs": [
        {
          "internalType": "address",
          "name": "owner",
          "type": "address"
        },
        {
          "internalType": "address",
          "name": "operator",
          "type": "address"
        }
      ],
      "name": "isApprovedForAll",
      "outputs": [
        {
          "internalType": "bool",
          "name": "",
          "type": "bool"
        }
      ],
      "stateMutability": "view",
      "type": "function"
    },
    {
      "inputs": [
        {
          "internalType": "address",
          "name": "to",
          "type": "address"
        },
        {
          "internalType": "string",
          "name": "_eventInfo",
          "type": "string"
        },
        {
          "internalType": "uint256",
          "name": "price",
          "type": "uint256"
        }
      ],
      "name": "mintAndList",
      "outputs": [],
      "stateMutability": "nonpayable",
      "type": "function"
    },
    {
      "inputs": [
        {
          "internalType": "address",
          "name": "to",
          "type": "address"
        },
        {
          "internalType": "string",
          "name": "_eventInfo",
          "type": "string"
        }
      ],
      "name": "mintTicket",
      "outputs": [],
      "stateMutability": "nonpayable",
      "type": "function"
    },
    {
      "inputs": [],
      "name": "name",
      "outputs": [
        {
          "internalType": "string",
          "name": "",
          "type": "string"
        }
      ],
      "stateMutability": "view",
      "type": "function"
    },
    {
      "inputs": [],
      "name": "nextTokenId",
      "outputs": [
        {
          "internalType": "uint256",
          "name": "",
          "type": "uint256"
        }
      ],
      "stateMutability": "view",
      "type": "function"
    },
    {
      "inputs": [],
      "name": "owner",
      "outputs": [
        {
          "internalType": "address",
          "name": "",
          "type": "address"
        }
      ],
      "stateMutability": "view",
      "type": "function"
    },
    {
      "inputs": [
        {
          "internalType": "uint256",
          "name": "tokenId",
          "type": "uint256"
        }
      ],
      "name": "ownerOf",
      "outputs": [
        {
          "internalType": "address",
          "name": "",
          "type": "address"
        }
      ],
      "stateMutability": "view",
      "type": "function"
    },
    {
      "inputs": [],
      "name": "renounceOwnership",
      "outputs": [],
      "stateMutability": "nonpayable",
      "type": "function"
    },
    {
      "inputs": [
        {
          "internalType": "address",
          "name": "from",
          "type": "address"
        },
        {
          "internalType": "address",
          "name": "to",
          "type": "address"
        },
        {
          "internalType": "uint256",
          "name": "tokenId",
          "type": "uint256"
        }
      ],
      "name": "safeTransferFrom",
      "outputs": [],
      "stateMutability": "nonpayable",
      "type": "function"
    },
    {
      "inputs": [
        {
          "internalType": "address",
          "name": "from",
          "type": "address"
        },
        {
          "internalType": "address",
          "name": "to",
          "type": "address"
        },
        {
          "internalType": "uint256",
          "name": "tokenId",
          "type": "uint256"
        },
        {
          "internalType": "bytes",
          "name": "data",
          "type": "bytes"
        }
      ],
      "name": "safeTransferFrom",
      "outputs": [],
      "stateMutability": "nonpayable",
      "type": "function"
    },
    {
      "inputs": [
        {
          "internalType": "address",
          "name": "operator",
          "type": "address"
        },
        {
          "internalType": "bool",
          "name": "approved",
          "type": "bool"
        }
      ],
      "name": "setApprovalForAll",
      "outputs": [],
      "stateMutability": "nonpayable",
      "type": "function"
    },
    {
      "inputs": [
        {
          "internalType": "uint256",
          "name": "tokenId",
          "type": "uint256"
        },
        {
          "internalType": "uint256",
          "name": "price",
          "type": "uint256"
        }
      ],
      "name": "setTicketForSale",
      "outputs": [],
      "stateMutability": "nonpayable",
      "type": "function"
    },
    {
      "inputs": [
        {
          "internalType": "bytes4",
          "name": "interfaceId",
          "type": "bytes4"
        }
      ],
      "name": "supportsInterface",
      "outputs": [
        {
          "internalType": "bool",
          "name": "",
          "type": "bool"
        }
      ],
      "stateMutability": "view",
      "type": "function"
    },
    {
      "inputs": [],
      "name": "symbol",
      "outputs": [
        {
          "internalType": "string",
          "name": "",
          "type": "string"
        }
      ],
      "stateMutability": "view",
      "type": "function"
    },
    {
      "inputs": [
        {
          "internalType": "uint256",
          "name": "",
          "type": "uint256"
        }
      ],
      "name": "ticketPrice",
      "outputs": [
        {
          "internalType": "uint256",
          "name": "",
          "type": "uint256"
        }
      ],
      "stateMutability": "view",
      "type": "function"
    },
    {
      "inputs": [
        {
          "internalType": "string",
          "name": "",
          "type": "string"
        },
        {
          "internalType": "uint256",
          "name": "",
          "type": "uint256"
        }
      ],
      "name": "ticketsByEvent",
      "outputs": [
        {
          "internalType": "uint256",
          "name": "",
          "type": "uint256"
        }
      ],
      "stateMutability": "view",
      "type": "function"
    },
    {
      "inputs": [
        {
          "internalType": "uint256",
          "name": "",
          "type": "uint256"
        }
      ],
      "name": "ticketsForSale",
      "outputs": [
        {
          "internalType": "bool",
          "name": "",
          "type": "bool"
        }
      ],
      "stateMutability": "view",
      "type": "function"
    },
    {
      "inputs": [
        {
          "internalType": "uint256",
          "name": "",
          "type": "uint256"
        }
      ],
      "name": "ticketsUsed",
      "outputs": [
        {
          "internalType": "bool",
          "name": "",
          "type": "bool"
        }
      ],
      "stateMutability": "view",
      "type": "function"
    },
    {
      "inputs": [
        {
          "internalType": "uint256",
          "name": "tokenId",
          "type": "uint256"
        }
      ],
      "name": "tokenURI",
      "outputs": [
        {
          "internalType": "string",
          "name": "",
          "type": "string"
        }
      ],
      "stateMutability": "view",
      "type": "function"
    },
    {
      "inputs": [
        {
          "internalType": "address",
          "name": "from",
          "type": "address"
        },
        {
          "internalType": "address",
          "name": "to",
          "type": "address"
        },
        {
          "internalType": "uint256",
          "name": "tokenId",
          "type": "uint256"
        }
      ],
      "name": "transferFrom",
      "outputs": [],
      "stateMutability": "nonpayable",
      "type": "function"
    },
    {
      "inputs": [
        {
          "internalType": "address",
          "name": "newOwner",
          "type": "address"
        }
      ],
      "name": "transferOwnership",
      "outputs": [],
      "stateMutability": "nonpayable",
      "type": "function"
    },
    {
      "inputs": [
        {
          "internalType": "uint256",
          "name": "tokenId",
          "type": "uint256"
        }
      ],
      "name": "unsetTicketForSale",
      "outputs": [],
      "stateMutability": "nonpayable",
      "type": "function"
    },
    {
      "inputs": [
        {
          "internalType": "uint256",
          "name": "tokenId",
          "type": "uint256"
        },
        {
          "internalType": "uint256",
          "name": "nonce",
          "type": "uint256"
        },
        {
          "internalType": "uint256",
          "name": "expiration",
          "type": "uint256"
        },
        {
          "internalType": "bytes",
          "name": "signature",
          "type": "bytes"
        }
      ],
      "name": "validateWithSignature",
      "outputs": [],
      "stateMutability": "nonpayable",
      "type": "function"
    }
  ],
  "bytecode": "0x608060405234801561001057600080fd5b50604051614d90380380614d9083398181016040528101906100329190610272565b806040518060400160405280600581526020017f4d794e46540000000000000000000000000000000000000000000000000000008152506040518060400160405280600481526020017f4d4e46540000000000000000000000000000000000000000000000000000000081525081600090816100ae91906104ef565b5080600190816100be91906104ef565b505050600073ffffffffffffffffffffffffffffffffffffffff168173ffffffffffffffffffffffffffffffffffffffff16036101335760006040517f1e4fbdf700000000000000000000000000000000000000000000000000000000815260040161012a91906105d0565b60405180910390fd5b6101428161014960201b60201c565b50506105eb565b6000600660009054906101000a900473ffffffffffffffffffffffffffffffffffffffff16905081600660006101000a81548173ffffffffffffffffffffffffffffffffffffffff021916908373ffffffffffffffffffffffffffffffffffffffff1602179055508173ffffffffffffffffffffffffffffffffffffffff168173ffffffffffffffffffffffffffffffffffffffff167f8be0079c531659141344cd1fd0a4f28419497f9722a3daafe3b4186f6b6457e060405160405180910390a35050565b600080fd5b600073ffffffffffffffffffffffffffffffffffffffff82169050919050565b600061023f82610214565b9050919050565b61024f81610234565b811461025a57600080fd5b50565b60008151905061026c81610246565b92915050565b6000602082840312156102885761028761020f565b5b60006102968482850161025d565b91505092915050565b600081519050919050565b7f4e487b7100000000000000000000000000000000000000000000000000000000600052604160045260246000fd5b7f4e487b7100000000000000000000000000000000000000000000000000000000600052602260045260246000fd5b6000600282049050600182168061032057607f821691505b602082108103610333576103326102d9565b5b50919050565b60008190508160005260206000209050919050565b60006020601f8301049050919050565b600082821b905092915050565b60006008830261039b7fffffffffffffffffffffffffffffffffffffffffffffffffffffffffffffffff8261035e565b6103a5868361035e565b95508019841693508086168417925050509392505050565b6000819050919050565b6000819050919050565b60006103ec6103e76103e2846103bd565b6103c7565b6103bd565b9050919050565b6000819050919050565b610406836103d1565b61041a610412826103f3565b84845461036b565b825550505050565b600090565b61042f610422565b61043a8184846103fd565b505050565b5b8181101561045e57610453600082610427565b600181019050610440565b5050565b601f8211156104a35761047481610339565b61047d8461034e565b8101602085101561048c578190505b6104a06104988561034e565b83018261043f565b50505b505050565b600082821c905092915050565b60006104c6600019846008026104a8565b1980831691505092915050565b60006104df83836104b5565b9150826002028217905092915050565b6104f88261029f565b67ffffffffffffffff811115610511576105106102aa565b5b61051b8254610308565b610526828285610462565b600060209050601f8311600181146105595760008415610547578287015190505b61055185826104d3565b8655506105b9565b601f19841661056786610339565b60005b8281101561058f5784890151825560018201915060208501945060208101905061056a565b868310156105ac57848901516105a8601f8916826104b5565b8355505b6001600288020188555050505b505050505050565b6105ca81610234565b82525050565b60006020820190506105e560008301846105c1565b92915050565b614796806105fa6000396000f3fe6080604052600436106101ee5760003560e01c806375794a3c1161010d578063c4d7c588116100a0578063f06fc9611161006f578063f06fc96114610748578063f2cbce5c14610785578063f2fde38b146107c2578063fe82613e146107eb578063ff99a06314610828576101ee565b8063c4d7c58814610668578063c87b56dd146106a5578063e985e9c5146106e2578063ef7c19e01461071f576101ee565b80639d0c025b116100dc5780639d0c025b146105b0578063a22cb465146105ed578063a49aa54414610616578063b88d4fde1461063f576101ee565b806375794a3c146104f25780637ef3205d1461051d5780638da5cb5b1461055a57806395d89b4114610585576101ee565b806342842e0e116101855780636352211e116101545780636352211e1461042457806367db1a521461046157806370a082311461049e578063715018a6146104db576101ee565b806342842e0e1461038d5780634db3e13a146103b65780635388842c146103df57806362a845ec14610408576101ee565b80630d93e609116101c15780630d93e609146102c157806323b872dd146102fe5780633b5979c0146103275780634121d29314610364576101ee565b806301ffc9a7146101f357806306fdde0314610230578063081812fc1461025b578063095ea7b314610298575b600080fd5b3480156101ff57600080fd5b5061021a6004803603810190610215919061331b565b610865565b6040516102279190613363565b60405180910390f35b34801561023c57600080fd5b50610245610947565b604051610252919061340e565b60405180910390f35b34801561026757600080fd5b50610282600480360381019061027d9190613466565b6109d9565b60405161028f91906134d4565b60405180910390f35b3480156102a457600080fd5b506102bf60048036038101906102ba919061351b565b6109f5565b005b3480156102cd57600080fd5b506102e860048036038101906102e39190613466565b610a0b565b6040516102f5919061356a565b60405180910390f35b34801561030a57600080fd5b5061032560048036038101906103209190613585565b610a23565b005b34801561033357600080fd5b5061034e6004803603810190610349919061370d565b610b25565b60405161035b9190613814565b60405180910390f35b34801561037057600080fd5b5061038b60048036038101906103869190613836565b610cfd565b005b34801561039957600080fd5b506103b460048036038101906103af9190613585565b610eee565b005b3480156103c257600080fd5b506103dd60048036038101906103d89190613466565b610f0e565b005b3480156103eb57600080fd5b50610406600480360381019061040191906138a5565b611011565b005b610422600480360381019061041d9190613901565b611110565b005b34801561043057600080fd5b5061044b60048036038101906104469190613466565b61134e565b60405161045891906134d4565b60405180910390f35b34801561046d57600080fd5b5061048860048036038101906104839190613466565b611360565b60405161049591906134d4565b60405180910390f35b3480156104aa57600080fd5b506104c560048036038101906104c09190613941565b611393565b6040516104d2919061356a565b60405180910390f35b3480156104e757600080fd5b506104f061144d565b005b3480156104fe57600080fd5b50610507611461565b604051610514919061356a565b60405180910390f35b34801561052957600080fd5b50610544600480360381019061053f9190613466565b611467565b6040516105519190613363565b60405180910390f35b34801561056657600080fd5b5061056f611487565b60405161057c91906134d4565b60405180910390f35b34801561059157600080fd5b5061059a6114b1565b6040516105a7919061340e565b60405180910390f35b3480156105bc57600080fd5b506105d760048036038101906105d29190613466565b611543565b6040516105e4919061340e565b60405180910390f35b3480156105f957600080fd5b50610614600480360381019061060f919061399a565b6115e3565b005b34801561062257600080fd5b5061063d600480360381019061063891906139da565b6115f9565b005b34801561064b57600080fd5b5061066660048036038101906106619190613abb565b611715565b005b34801561067457600080fd5b5061068f600480360381019061068a9190613b3e565b61173a565b60405161069c919061356a565b60405180910390f35b3480156106b157600080fd5b506106cc60048036038101906106c79190613466565b611781565b6040516106d9919061340e565b60405180910390f35b3480156106ee57600080fd5b5061070960048036038101906107049190613b9a565b6117ea565b6040516107169190613363565b60405180910390f35b34801561072b57600080fd5b5061074660048036038101906107419190613bda565b61187e565b005b34801561075457600080fd5b5061076f600480360381019061076a9190613466565b611af7565b60405161077c919061356a565b60405180910390f35b34801561079157600080fd5b506107ac60048036038101906107a79190613466565b611b14565b6040516107b99190613363565b60405180910390f35b3480156107ce57600080fd5b506107e960048036038101906107e49190613941565b611b34565b005b3480156107f757600080fd5b50610812600480360381019061080d919061370d565b611bba565b60405161081f9190613814565b60405180910390f35b34801561083457600080fd5b5061084f600480360381019061084a9190613466565b611e78565b60405161085c919061340e565b60405180910390f35b60007f80ac58cd000000000000000000000000000000000000000000000000000000007bffffffffffffffffffffffffffffffffffffffffffffffffffffffff1916827bffffffffffffffffffffffffffffffffffffffffffffffffffffffff1916148061093057507f5b5e139f000000000000000000000000000000000000000000000000000000007bffffffffffffffffffffffffffffffffffffffffffffffffffffffff1916827bffffffffffffffffffffffffffffffffffffffffffffffffffffffff1916145b80610940575061093f82611f1d565b5b9050919050565b60606000805461095690613c8c565b80601f016020809104026020016040519081016040528092919081815260200182805461098290613c8c565b80156109cf5780601f106109a4576101008083540402835291602001916109cf565b820191906000526020600020905b8154815290600101906020018083116109b257829003601f168201915b5050505050905090565b60006109e482611f87565b506109ee8261200f565b9050919050565b610a078282610a0261204c565b612054565b5050565b600c6020528060005260406000206000915090505481565b600073ffffffffffffffffffffffffffffffffffffffff168273ffffffffffffffffffffffffffffffffffffffff1603610a955760006040517f64a0ae92000000000000000000000000000000000000000000000000000000008152600401610a8c91906134d4565b60405180910390fd5b6000610aa98383610aa461204c565b612066565b90508373ffffffffffffffffffffffffffffffffffffffff168173ffffffffffffffffffffffffffffffffffffffff1614610b1f578382826040517f64283d7b000000000000000000000000000000000000000000000000000000008152600401610b1693929190613cbd565b60405180910390fd5b50505050565b60606000600b83604051610b399190613d30565b9081526020016040518091039020805480602002602001604051908101604052809291908181526020018280548015610b9157602002820191906000526020600020905b815481526020019060010190808311610b7d575b505050505090506000805b8251811015610c0157600a6000848381518110610bbc57610bbb613d47565b5b6020026020010151815260200190815260200160002060009054906101000a900460ff1615610bf4578180610bf090613da5565b9250505b8080600101915050610b9c565b5060008167ffffffffffffffff811115610c1e57610c1d6135e2565b5b604051908082528060200260200182016040528015610c4c5781602001602082028036833780820191505090505b5090506000805b8451811015610cf057600a6000868381518110610c7357610c72613d47565b5b6020026020010151815260200190815260200160002060009054906101000a900460ff1615610ce357848181518110610caf57610cae613d47565b5b6020026020010151838380610cc390613da5565b945081518110610cd657610cd5613d47565b5b6020026020010181815250505b8080600101915050610c53565b5081945050505050919050565b610d05612280565b600060076000815480929190610d1a90613da5565b919050559050610d2a8482612307565b82600860008381526020019081526020016000209081610d4a9190613f99565b50836009600083815260200190815260200160002060006101000a81548173ffffffffffffffffffffffffffffffffffffffff021916908373ffffffffffffffffffffffffffffffffffffffff1602179055506001600a600083815260200190815260200160002060006101000a81548160ff021916908315150217905550600b83604051610dd99190613d30565b908152602001604051809103902081908060018154018082558091505060019003906000526020600020016000909190919091505581600c60008381526020019081526020016000208190555082604051610e349190613d30565b6040518091039020818573ffffffffffffffffffffffffffffffffffffffff167ff16f1e8b680ea7f1e8a1f849eb82762cba60ddcef854d36909e3173483281c8c60405160405180910390a482604051610e8e9190613d30565b6040518091039020818573ffffffffffffffffffffffffffffffffffffffff167f35a989ac02a2bb5d9e1e372a44269a009742c03fa1def4b1da23ecf68d49f143856001604051610ee092919061406b565b60405180910390a450505050565b610f0983838360405180602001604052806000815250611715565b505050565b610f21610f1a82612325565b3383612362565b610f60576040517f08c379a0000000000000000000000000000000000000000000000000000000008152600401610f57906140e0565b60405180910390fd5b6000600a600083815260200190815260200160002060006101000a81548160ff02191690831515021790555060086000828152602001908152602001600020604051610fac9190614183565b604051809103902081610fbe83612325565b73ffffffffffffffffffffffffffffffffffffffff167f35a989ac02a2bb5d9e1e372a44269a009742c03fa1def4b1da23ecf68d49f1436000806040516110069291906141d5565b60405180910390a450565b611019612280565b60006007600081548092919061102e90613da5565b91905055905061103e8382612307565b8160086000838152602001908152602001600020908161105e9190613f99565b50826009600083815260200190815260200160002060006101000a81548173ffffffffffffffffffffffffffffffffffffffff021916908373ffffffffffffffffffffffffffffffffffffffff160217905550816040516110bf9190613d30565b6040518091039020818473ffffffffffffffffffffffffffffffffffffffff167ff16f1e8b680ea7f1e8a1f849eb82762cba60ddcef854d36909e3173483281c8c60405160405180910390a4505050565b600a600083815260200190815260200160002060009054906101000a900460ff16611170576040517f08c379a00000000000000000000000000000000000000000000000000000000081526004016111679061424a565b60405180910390fd5b6000600c6000848152602001908152602001600020549050803410156111cb576040517f08c379a00000000000000000000000000000000000000000000000000000000081526004016111c2906142b6565b60405180910390fd5b60006111d684612325565b90506111e3818486612423565b6000600a600086815260200190815260200160002060006101000a81548160ff0219169083151502179055508073ffffffffffffffffffffffffffffffffffffffff166108fc839081150290604051600060405180830381858888f19350505050158015611255573d6000803e3d6000fd5b50600860008581526020019081526020016000206040516112769190614183565b60405180910390208373ffffffffffffffffffffffffffffffffffffffff168273ffffffffffffffffffffffffffffffffffffffff167f1f98ffd79d7a0d746ca6b1537188de84bcb9e99ecf87c0e4fdb03d3483ae01ca856040516112db919061356a565b60405180910390a43373ffffffffffffffffffffffffffffffffffffffff168173ffffffffffffffffffffffffffffffffffffffff167f17fe3deddce525fa12700a731e77ea94c319000ee656076e9e3f0d21638db76686604051611340919061356a565b60405180910390a350505050565b600061135982611f87565b9050919050565b60096020528060005260406000206000915054906101000a900473ffffffffffffffffffffffffffffffffffffffff1681565b60008073ffffffffffffffffffffffffffffffffffffffff168273ffffffffffffffffffffffffffffffffffffffff16036114065760006040517f89c62b640000000000000000000000000000000000000000000000000000000081526004016113fd91906134d4565b60405180910390fd5b600360008373ffffffffffffffffffffffffffffffffffffffff1673ffffffffffffffffffffffffffffffffffffffff168152602001908152602001600020549050919050565b611455612280565b61145f6000612443565b565b60075481565b600a6020528060005260406000206000915054906101000a900460ff1681565b6000600660009054906101000a900473ffffffffffffffffffffffffffffffffffffffff16905090565b6060600180546114c090613c8c565b80601f01602080910402602001604051908101604052809291908181526020018280546114ec90613c8c565b80156115395780601f1061150e57610100808354040283529160200191611539565b820191906000526020600020905b81548152906001019060200180831161151c57829003601f168201915b5050505050905090565b6008602052806000526040600020600091509050805461156290613c8c565b80601f016020809104026020016040519081016040528092919081815260200182805461158e90613c8c565b80156115db5780601f106115b0576101008083540402835291602001916115db565b820191906000526020600020905b8154815290600101906020018083116115be57829003601f168201915b505050505081565b6115f56115ee61204c565b8383612509565b5050565b61160c61160583612325565b3384612362565b61164b576040517f08c379a0000000000000000000000000000000000000000000000000000000008152600401611642906140e0565b60405180910390fd5b6001600a600084815260200190815260200160002060006101000a81548160ff02191690831515021790555080600c600084815260200190815260200160002081905550600860008381526020019081526020016000206040516116af9190614183565b6040518091039020826116c184612325565b73ffffffffffffffffffffffffffffffffffffffff167f35a989ac02a2bb5d9e1e372a44269a009742c03fa1def4b1da23ecf68d49f14384600160405161170992919061406b565b60405180910390a45050565b611720848484610a23565b61173461172b61204c565b85858585612678565b50505050565b600b82805160208101820180518482526020830160208501208183528095505050505050818154811061176c57600080fd5b90600052602060002001600091509150505481565b606061178c82611f87565b506000611797612829565b905060008151116117b757604051806020016040528060008152506117e2565b806117c184612840565b6040516020016117d29291906142d6565b6040516020818303038152906040525b915050919050565b6000600560008473ffffffffffffffffffffffffffffffffffffffff1673ffffffffffffffffffffffffffffffffffffffff16815260200190815260200160002060008373ffffffffffffffffffffffffffffffffffffffff1673ffffffffffffffffffffffffffffffffffffffff16815260200190815260200160002060009054906101000a900460ff16905092915050565b8142106118c0576040517f08c379a00000000000000000000000000000000000000000000000000000000081526004016118b790614346565b60405180910390fd5b600d600085815260200190815260200160002060009054906101000a900460ff1615611921576040517f08c379a0000000000000000000000000000000000000000000000000000000008152600401611918906143b2565b60405180910390fd5b60003085858560405160200161193a949392919061443b565b60405160208183030381529060405280519060200120905060006119666119608361290e565b84612944565b90506119718661134e565b73ffffffffffffffffffffffffffffffffffffffff168173ffffffffffffffffffffffffffffffffffffffff16146119de576040517f08c379a00000000000000000000000000000000000000000000000000000000081526004016119d5906144d5565b60405180910390fd5b6009600087815260200190815260200160002060009054906101000a900473ffffffffffffffffffffffffffffffffffffffff1673ffffffffffffffffffffffffffffffffffffffff163373ffffffffffffffffffffffffffffffffffffffff1614611a7f576040517f08c379a0000000000000000000000000000000000000000000000000000000008152600401611a7690614541565b60405180910390fd5b6001600d600088815260200190815260200160002060006101000a81548160ff0219169083151502179055503373ffffffffffffffffffffffffffffffffffffffff16867f7523a5038b0221808d5987c7a4c3a6d9074ed76bf247f76665b2ed493e8fd1fb60405160405180910390a3505050505050565b6000600c6000838152602001908152602001600020549050919050565b600d6020528060005260406000206000915054906101000a900460ff1681565b611b3c612280565b600073ffffffffffffffffffffffffffffffffffffffff168173ffffffffffffffffffffffffffffffffffffffff1603611bae5760006040517f1e4fbdf7000000000000000000000000000000000000000000000000000000008152600401611ba591906134d4565b60405180910390fd5b611bb781612443565b50565b60606000600b83604051611bce9190613d30565b9081526020016040518091039020805480602002602001604051908101604052809291908181526020018280548015611c2657602002820191906000526020600020905b815481526020019060010190808311611c12575b505050505090506000805b8251811015611d16576000838281518110611c4f57611c4e613d47565b5b6020026020010151905060001515600a600083815260200190815260200160002060009054906101000a900460ff161515148015611cf457506009600082815260200190815260200160002060009054906101000a900473ffffffffffffffffffffffffffffffffffffffff1673ffffffffffffffffffffffffffffffffffffffff16611cdb8261134e565b73ffffffffffffffffffffffffffffffffffffffff1614155b15611d08578280611d0490613da5565b9350505b508080600101915050611c31565b5060008167ffffffffffffffff811115611d3357611d326135e2565b5b604051908082528060200260200182016040528015611d615781602001602082028036833780820191505090505b5090506000805b8451811015611e6b576000858281518110611d8657611d85613d47565b5b6020026020010151905060001515600a600083815260200190815260200160002060009054906101000a900460ff161515148015611e2b57506009600082815260200190815260200160002060009054906101000a900473ffffffffffffffffffffffffffffffffffffffff1673ffffffffffffffffffffffffffffffffffffffff16611e128261134e565b73ffffffffffffffffffffffffffffffffffffffff1614155b15611e5d5780848480611e3d90613da5565b955081518110611e5057611e4f613d47565b5b6020026020010181815250505b508080600101915050611d68565b5081945050505050919050565b6060600860008381526020019081526020016000208054611e9890613c8c565b80601f0160208091040260200160405190810160405280929190818152602001828054611ec490613c8c565b8015611f115780601f10611ee657610100808354040283529160200191611f11565b820191906000526020600020905b815481529060010190602001808311611ef457829003601f168201915b50505050509050919050565b60007f01ffc9a7000000000000000000000000000000000000000000000000000000007bffffffffffffffffffffffffffffffffffffffffffffffffffffffff1916827bffffffffffffffffffffffffffffffffffffffffffffffffffffffff1916149050919050565b600080611f9383612325565b9050600073ffffffffffffffffffffffffffffffffffffffff168173ffffffffffffffffffffffffffffffffffffffff160361200657826040517f7e273289000000000000000000000000000000000000000000000000000000008152600401611ffd919061356a565b60405180910390fd5b80915050919050565b60006004600083815260200190815260200160002060009054906101000a900473ffffffffffffffffffffffffffffffffffffffff169050919050565b600033905090565b6120618383836001612970565b505050565b60008061207284612325565b9050600073ffffffffffffffffffffffffffffffffffffffff168373ffffffffffffffffffffffffffffffffffffffff16146120b4576120b3818486612b35565b5b600073ffffffffffffffffffffffffffffffffffffffff168173ffffffffffffffffffffffffffffffffffffffff1614612145576120f6600085600080612970565b6001600360008373ffffffffffffffffffffffffffffffffffffffff1673ffffffffffffffffffffffffffffffffffffffff168152602001908152602001600020600082825403925050819055505b600073ffffffffffffffffffffffffffffffffffffffff168573ffffffffffffffffffffffffffffffffffffffff16146121c8576001600360008773ffffffffffffffffffffffffffffffffffffffff1673ffffffffffffffffffffffffffffffffffffffff168152602001908152602001600020600082825401925050819055505b846002600086815260200190815260200160002060006101000a81548173ffffffffffffffffffffffffffffffffffffffff021916908373ffffffffffffffffffffffffffffffffffffffff160217905550838573ffffffffffffffffffffffffffffffffffffffff168273ffffffffffffffffffffffffffffffffffffffff167fddf252ad1be2c89b69c2b068fc378daa952ba7f163c4a11628f55a4df523b3ef60405160405180910390a4809150509392505050565b61228861204c565b73ffffffffffffffffffffffffffffffffffffffff166122a6611487565b73ffffffffffffffffffffffffffffffffffffffff1614612305576122c961204c565b6040517f118cdaa70000000000000000000000000000000000000000000000000000000081526004016122fc91906134d4565b60405180910390fd5b565b612321828260405180602001604052806000815250612bf9565b5050565b60006002600083815260200190815260200160002060009054906101000a900473ffffffffffffffffffffffffffffffffffffffff169050919050565b60008073ffffffffffffffffffffffffffffffffffffffff168373ffffffffffffffffffffffffffffffffffffffff161415801561241a57508273ffffffffffffffffffffffffffffffffffffffff168473ffffffffffffffffffffffffffffffffffffffff1614806123db57506123da84846117ea565b5b8061241957508273ffffffffffffffffffffffffffffffffffffffff166124018361200f565b73ffffffffffffffffffffffffffffffffffffffff16145b5b90509392505050565b61243e83838360405180602001604052806000815250612c1d565b505050565b6000600660009054906101000a900473ffffffffffffffffffffffffffffffffffffffff16905081600660006101000a81548173ffffffffffffffffffffffffffffffffffffffff021916908373ffffffffffffffffffffffffffffffffffffffff1602179055508173ffffffffffffffffffffffffffffffffffffffff168173ffffffffffffffffffffffffffffffffffffffff167f8be0079c531659141344cd1fd0a4f28419497f9722a3daafe3b4186f6b6457e060405160405180910390a35050565b600073ffffffffffffffffffffffffffffffffffffffff168273ffffffffffffffffffffffffffffffffffffffff160361257a57816040517f5b08ba1800000000000000000000000000000000000000000000000000000000815260040161257191906134d4565b60405180910390fd5b80600560008573ffffffffffffffffffffffffffffffffffffffff1673ffffffffffffffffffffffffffffffffffffffff16815260200190815260200160002060008473ffffffffffffffffffffffffffffffffffffffff1673ffffffffffffffffffffffffffffffffffffffff16815260200190815260200160002060006101000a81548160ff0219169083151502179055508173ffffffffffffffffffffffffffffffffffffffff168373ffffffffffffffffffffffffffffffffffffffff167f17307eab39ab6107e8899845ad3d59bd9653f200f220920489ca2b5937696c318360405161266b9190613363565b60405180910390a3505050565b60008373ffffffffffffffffffffffffffffffffffffffff163b1115612822578273ffffffffffffffffffffffffffffffffffffffff1663150b7a02868685856040518563ffffffff1660e01b81526004016126d794939291906145b6565b6020604051808303816000875af192505050801561271357506040513d601f19601f820116820180604052508101906127109190614617565b60015b612797573d8060008114612743576040519150601f19603f3d011682016040523d82523d6000602084013e612748565b606091505b50600081510361278f57836040517f64a0ae9200000000000000000000000000000000000000000000000000000000815260040161278691906134d4565b60405180910390fd5b805181602001fd5b63150b7a0260e01b7bffffffffffffffffffffffffffffffffffffffffffffffffffffffff1916817bffffffffffffffffffffffffffffffffffffffffffffffffffffffff19161461282057836040517f64a0ae9200000000000000000000000000000000000000000000000000000000815260040161281791906134d4565b60405180910390fd5b505b5050505050565b606060405180602001604052806000815250905090565b60606000600161284f84612c42565b01905060008167ffffffffffffffff81111561286e5761286d6135e2565b5b6040519080825280601f01601f1916602001820160405280156128a05781602001600182028036833780820191505090505b509050600082602001820190505b600115612903578080600190039150507f3031323334353637383961626364656600000000000000000000000000000000600a86061a8153600a85816128f7576128f6614644565b5b049450600085036128ae575b819350505050919050565b60007f19457468657265756d205369676e6564204d6573736167653a0a33320000000060005281601c52603c6000209050919050565b6000806000806129548686612d95565b9250925092506129648282612df1565b82935050505092915050565b80806129a95750600073ffffffffffffffffffffffffffffffffffffffff168273ffffffffffffffffffffffffffffffffffffffff1614155b15612add5760006129b984611f87565b9050600073ffffffffffffffffffffffffffffffffffffffff168373ffffffffffffffffffffffffffffffffffffffff1614158015612a2457508273ffffffffffffffffffffffffffffffffffffffff168173ffffffffffffffffffffffffffffffffffffffff1614155b8015612a375750612a3581846117ea565b155b15612a7957826040517fa9fbf51f000000000000000000000000000000000000000000000000000000008152600401612a7091906134d4565b60405180910390fd5b8115612adb57838573ffffffffffffffffffffffffffffffffffffffff168273ffffffffffffffffffffffffffffffffffffffff167f8c5be1e5ebec7d5bd14f71427d1e84f3dd0314c0f7b2291e5b200ac8c7c3b92560405160405180910390a45b505b836004600085815260200190815260200160002060006101000a81548173ffffffffffffffffffffffffffffffffffffffff021916908373ffffffffffffffffffffffffffffffffffffffff16021790555050505050565b612b40838383612362565b612bf457600073ffffffffffffffffffffffffffffffffffffffff168373ffffffffffffffffffffffffffffffffffffffff1603612bb557806040517f7e273289000000000000000000000000000000000000000000000000000000008152600401612bac919061356a565b60405180910390fd5b81816040517f177e802f000000000000000000000000000000000000000000000000000000008152600401612beb929190614673565b60405180910390fd5b505050565b612c038383612f55565b612c18612c0e61204c565b6000858585612678565b505050565b612c2884848461304e565b612c3c612c3361204c565b85858585612678565b50505050565b600080600090507a184f03e93ff9f4daa797ed6e38ed64bf6a1f0100000000000000008310612ca0577a184f03e93ff9f4daa797ed6e38ed64bf6a1f0100000000000000008381612c9657612c95614644565b5b0492506040810190505b6d04ee2d6d415b85acef81000000008310612cdd576d04ee2d6d415b85acef81000000008381612cd357612cd2614644565b5b0492506020810190505b662386f26fc100008310612d0c57662386f26fc100008381612d0257612d01614644565b5b0492506010810190505b6305f5e1008310612d35576305f5e1008381612d2b57612d2a614644565b5b0492506008810190505b6127108310612d5a576127108381612d5057612d4f614644565b5b0492506004810190505b60648310612d7d5760648381612d7357612d72614644565b5b0492506002810190505b600a8310612d8c576001810190505b80915050919050565b60008060006041845103612dda5760008060006020870151925060408701519150606087015160001a9050612dcc888285856131bb565b955095509550505050612dea565b60006002855160001b9250925092505b9250925092565b60006003811115612e0557612e0461469c565b5b826003811115612e1857612e1761469c565b5b0315612f515760016003811115612e3257612e3161469c565b5b826003811115612e4557612e4461469c565b5b03612e7c576040517ff645eedf00000000000000000000000000000000000000000000000000000000815260040160405180910390fd5b60026003811115612e9057612e8f61469c565b5b826003811115612ea357612ea261469c565b5b03612ee8578060001c6040517ffce698f7000000000000000000000000000000000000000000000000000000008152600401612edf919061356a565b60405180910390fd5b600380811115612efb57612efa61469c565b5b826003811115612f0e57612f0d61469c565b5b03612f5057806040517fd78bce0c000000000000000000000000000000000000000000000000000000008152600401612f4791906146e4565b60405180910390fd5b5b5050565b600073ffffffffffffffffffffffffffffffffffffffff168273ffffffffffffffffffffffffffffffffffffffff1603612fc75760006040517f64a0ae92000000000000000000000000000000000000000000000000000000008152600401612fbe91906134d4565b60405180910390fd5b6000612fd583836000612066565b9050600073ffffffffffffffffffffffffffffffffffffffff168173ffffffffffffffffffffffffffffffffffffffff16146130495760006040517f73c6ac6e00000000000000000000000000000000000000000000000000000000815260040161304091906134d4565b60405180910390fd5b505050565b600073ffffffffffffffffffffffffffffffffffffffff168273ffffffffffffffffffffffffffffffffffffffff16036130c05760006040517f64a0ae920000000000000000000000000000000000000000000000000000000081526004016130b791906134d4565b60405180910390fd5b60006130ce83836000612066565b9050600073ffffffffffffffffffffffffffffffffffffffff168173ffffffffffffffffffffffffffffffffffffffff160361314157816040517f7e273289000000000000000000000000000000000000000000000000000000008152600401613138919061356a565b60405180910390fd5b8373ffffffffffffffffffffffffffffffffffffffff168173ffffffffffffffffffffffffffffffffffffffff16146131b5578382826040517f64283d7b0000000000000000000000000000000000000000000000000000000081526004016131ac93929190613cbd565b60405180910390fd5b50505050565b60008060007f7fffffffffffffffffffffffffffffff5d576e7357a4501ddfe92f46681b20a08460001c11156131fb5760006003859250925092506132a5565b600060018888888860405160008152602001604052604051613220949392919061471b565b6020604051602081039080840390855afa158015613242573d6000803e3d6000fd5b505050602060405103519050600073ffffffffffffffffffffffffffffffffffffffff168173ffffffffffffffffffffffffffffffffffffffff160361329657600060016000801b935093509350506132a5565b8060008060001b935093509350505b9450945094915050565b6000604051905090565b600080fd5b600080fd5b60007fffffffff0000000000000000000000000000000000000000000000000000000082169050919050565b6132f8816132c3565b811461330357600080fd5b50565b600081359050613315816132ef565b92915050565b600060208284031215613331576133306132b9565b5b600061333f84828501613306565b91505092915050565b60008115159050919050565b61335d81613348565b82525050565b60006020820190506133786000830184613354565b92915050565b600081519050919050565b600082825260208201905092915050565b60005b838110156133b857808201518184015260208101905061339d565b60008484015250505050565b6000601f19601f8301169050919050565b60006133e08261337e565b6133ea8185613389565b93506133fa81856020860161339a565b613403816133c4565b840191505092915050565b6000602082019050818103600083015261342881846133d5565b905092915050565b6000819050919050565b61344381613430565b811461344e57600080fd5b50565b6000813590506134608161343a565b92915050565b60006020828403121561347c5761347b6132b9565b5b600061348a84828501613451565b91505092915050565b600073ffffffffffffffffffffffffffffffffffffffff82169050919050565b60006134be82613493565b9050919050565b6134ce816134b3565b82525050565b60006020820190506134e960008301846134c5565b92915050565b6134f8816134b3565b811461350357600080fd5b50565b600081359050613515816134ef565b92915050565b60008060408385031215613532576135316132b9565b5b600061354085828601613506565b925050602061355185828601613451565b9150509250929050565b61356481613430565b82525050565b600060208201905061357f600083018461355b565b92915050565b60008060006060848603121561359e5761359d6132b9565b5b60006135ac86828701613506565b93505060206135bd86828701613506565b92505060406135ce86828701613451565b9150509250925092565b600080fd5b600080fd5b7f4e487b7100000000000000000000000000000000000000000000000000000000600052604160045260246000fd5b61361a826133c4565b810181811067ffffffffffffffff82111715613639576136386135e2565b5b80604052505050565b600061364c6132af565b90506136588282613611565b919050565b600067ffffffffffffffff821115613678576136776135e2565b5b613681826133c4565b9050602081019050919050565b82818337600083830152505050565b60006136b06136ab8461365d565b613642565b9050828152602081018484840111156136cc576136cb6135dd565b5b6136d784828561368e565b509392505050565b600082601f8301126136f4576136f36135d8565b5b813561370484826020860161369d565b91505092915050565b600060208284031215613723576137226132b9565b5b600082013567ffffffffffffffff811115613741576137406132be565b5b61374d848285016136df565b91505092915050565b600081519050919050565b600082825260208201905092915050565b6000819050602082019050919050565b61378b81613430565b82525050565b600061379d8383613782565b60208301905092915050565b6000602082019050919050565b60006137c182613756565b6137cb8185613761565b93506137d683613772565b8060005b838110156138075781516137ee8882613791565b97506137f9836137a9565b9250506001810190506137da565b5085935050505092915050565b6000602082019050818103600083015261382e81846137b6565b905092915050565b60008060006060848603121561384f5761384e6132b9565b5b600061385d86828701613506565b935050602084013567ffffffffffffffff81111561387e5761387d6132be565b5b61388a868287016136df565b925050604061389b86828701613451565b9150509250925092565b600080604083850312156138bc576138bb6132b9565b5b60006138ca85828601613506565b925050602083013567ffffffffffffffff8111156138eb576138ea6132be565b5b6138f7858286016136df565b9150509250929050565b60008060408385031215613918576139176132b9565b5b600061392685828601613451565b925050602061393785828601613506565b9150509250929050565b600060208284031215613957576139566132b9565b5b600061396584828501613506565b91505092915050565b61397781613348565b811461398257600080fd5b50565b6000813590506139948161396e565b92915050565b600080604083850312156139b1576139b06132b9565b5b60006139bf85828601613506565b92505060206139d085828601613985565b9150509250929050565b600080604083850312156139f1576139f06132b9565b5b60006139ff85828601613451565b9250506020613a1085828601613451565b9150509250929050565b600067ffffffffffffffff821115613a3557613a346135e2565b5b613a3e826133c4565b9050602081019050919050565b6000613a5e613a5984613a1a565b613642565b905082815260208101848484011115613a7a57613a796135dd565b5b613a8584828561368e565b509392505050565b600082601f830112613aa257613aa16135d8565b5b8135613ab2848260208601613a4b565b91505092915050565b60008060008060808587031215613ad557613ad46132b9565b5b6000613ae387828801613506565b9450506020613af487828801613506565b9350506040613b0587828801613451565b925050606085013567ffffffffffffffff811115613b2657613b256132be565b5b613b3287828801613a8d565b91505092959194509250565b60008060408385031215613b5557613b546132b9565b5b600083013567ffffffffffffffff811115613b7357613b726132be565b5b613b7f858286016136df565b9250506020613b9085828601613451565b9150509250929050565b60008060408385031215613bb157613bb06132b9565b5b6000613bbf85828601613506565b9250506020613bd085828601613506565b9150509250929050565b60008060008060808587031215613bf457613bf36132b9565b5b6000613c0287828801613451565b9450506020613c1387828801613451565b9350506040613c2487828801613451565b925050606085013567ffffffffffffffff811115613c4557613c446132be565b5b613c5187828801613a8d565b91505092959194509250565b7f4e487b7100000000000000000000000000000000000000000000000000000000600052602260045260246000fd5b60006002820490506001821680613ca457607f821691505b602082108103613cb757613cb6613c5d565b5b50919050565b6000606082019050613cd260008301866134c5565b613cdf602083018561355b565b613cec60408301846134c5565b949350505050565b600081905092915050565b6000613d0a8261337e565b613d148185613cf4565b9350613d2481856020860161339a565b80840191505092915050565b6000613d3c8284613cff565b915081905092915050565b7f4e487b7100000000000000000000000000000000000000000000000000000000600052603260045260246000fd5b7f4e487b7100000000000000000000000000000000000000000000000000000000600052601160045260246000fd5b6000613db082613430565b91507fffffffffffffffffffffffffffffffffffffffffffffffffffffffffffffffff8203613de257613de1613d76565b5b600182019050919050565b60008190508160005260206000209050919050565b60006020601f8301049050919050565b600082821b905092915050565b600060088302613e4f7fffffffffffffffffffffffffffffffffffffffffffffffffffffffffffffffff82613e12565b613e598683613e12565b95508019841693508086168417925050509392505050565b6000819050919050565b6000613e96613e91613e8c84613430565b613e71565b613430565b9050919050565b6000819050919050565b613eb083613e7b565b613ec4613ebc82613e9d565b848454613e1f565b825550505050565b600090565b613ed9613ecc565b613ee4818484613ea7565b505050565b5b81811015613f0857613efd600082613ed1565b600181019050613eea565b5050565b601f821115613f4d57613f1e81613ded565b613f2784613e02565b81016020851015613f36578190505b613f4a613f4285613e02565b830182613ee9565b50505b505050565b600082821c905092915050565b6000613f7060001984600802613f52565b1980831691505092915050565b6000613f898383613f5f565b9150826002028217905092915050565b613fa28261337e565b67ffffffffffffffff811115613fbb57613fba6135e2565b5b613fc58254613c8c565b613fd0828285613f0c565b600060209050601f8311600181146140035760008415613ff1578287015190505b613ffb8582613f7d565b865550614063565b601f19841661401186613ded565b60005b8281101561403957848901518255600182019150602085019450602081019050614014565b868310156140565784890151614052601f891682613f5f565b8355505b6001600288020188555050505b505050505050565b6000604082019050614080600083018561355b565b61408d6020830184613354565b9392505050565b7f4e6f7420617574686f72697a6564000000000000000000000000000000000000600082015250565b60006140ca600e83613389565b91506140d582614094565b602082019050919050565b600060208201905081810360008301526140f9816140bd565b9050919050565b6000815461410d81613c8c565b6141178186613cf4565b9450600182166000811461413257600181146141475761417a565b60ff198316865281151582028601935061417a565b61415085613ded565b60005b8381101561417257815481890152600182019150602081019050614153565b838801955050505b50505092915050565b600061418f8284614100565b915081905092915050565b6000819050919050565b60006141bf6141ba6141b58461419a565b613e71565b613430565b9050919050565b6141cf816141a4565b82525050565b60006040820190506141ea60008301856141c6565b6141f76020830184613354565b9392505050565b7f5469636b6574206e6f7420666f722073616c6500000000000000000000000000600082015250565b6000614234601383613389565b915061423f826141fe565b602082019050919050565b6000602082019050818103600083015261426381614227565b9050919050565b7f496e73756666696369656e74207061796d656e74000000000000000000000000600082015250565b60006142a0601483613389565b91506142ab8261426a565b602082019050919050565b600060208201905081810360008301526142cf81614293565b9050919050565b60006142e28285613cff565b91506142ee8284613cff565b91508190509392505050565b7f5152206578706972656400000000000000000000000000000000000000000000600082015250565b6000614330600a83613389565b915061433b826142fa565b602082019050919050565b6000602082019050818103600083015261435f81614323565b9050919050565b7f5469636b657420616c7265616479207573656400000000000000000000000000600082015250565b600061439c601383613389565b91506143a782614366565b602082019050919050565b600060208201905081810360008301526143cb8161438f565b9050919050565b60008160601b9050919050565b60006143ea826143d2565b9050919050565b60006143fc826143df565b9050919050565b61441461440f826134b3565b6143f1565b82525050565b6000819050919050565b61443561443082613430565b61441a565b82525050565b60006144478287614403565b6014820191506144578286614424565b6020820191506144678285614424565b6020820191506144778284614424565b60208201915081905095945050505050565b7f496e76616c6964207369676e6174757265000000000000000000000000000000600082015250565b60006144bf601183613389565b91506144ca82614489565b602082019050919050565b600060208201905081810360008301526144ee816144b2565b9050919050565b7f4e6f74206576656e74206f7267616e697a657200000000000000000000000000600082015250565b600061452b601383613389565b9150614536826144f5565b602082019050919050565b6000602082019050818103600083015261455a8161451e565b9050919050565b600081519050919050565b600082825260208201905092915050565b600061458882614561565b614592818561456c565b93506145a281856020860161339a565b6145ab816133c4565b840191505092915050565b60006080820190506145cb60008301876134c5565b6145d860208301866134c5565b6145e5604083018561355b565b81810360608301526145f7818461457d565b905095945050505050565b600081519050614611816132ef565b92915050565b60006020828403121561462d5761462c6132b9565b5b600061463b84828501614602565b91505092915050565b7f4e487b7100000000000000000000000000000000000000000000000000000000600052601260045260246000fd5b600060408201905061468860008301856134c5565b614695602083018461355b565b9392505050565b7f4e487b7100000000000000000000000000000000000000000000000000000000600052602160045260246000fd5b6000819050919050565b6146de816146cb565b82525050565b60006020820190506146f960008301846146d5565b92915050565b600060ff82169050919050565b614715816146ff565b82525050565b600060808201905061473060008301876146d5565b61473d602083018661470c565b61474a60408301856146d5565b61475760608301846146d5565b9594505050505056fea2646970667358221220e466a5619134598ef361be3bd4361229910c6c5d2231d9227e9248095eb89d3e64736f6c634300081c0033",
  "linkReferences": {},
  "deployedLinkReferences": {}
}