{
  "_format": "hh-sol-artifact-1",
  "contractName": "TicketNFT",
  "sourceName": "contracts/TicketNFT.sol",
  "abi": [
    {
      "inputs": [
        {
          "internalType": "address",
          "name": "initialOwner",
          "type": "address"
        }
      ],
      "stateMutability": "nonpayable",
      "type": "constructor"
    },
    {
      "inputs": [],
      "name": "ECDSAInvalidSignature",
      "type": "error"
    },
    {
      "inputs": [
        {
          "internalType": "uint256",
          "name": "length",
          "type": "uint256"
        }
      ],
      "name": "ECDSAInvalidSignatureLength",
      "type": "error"
    },
    {
      "inputs": [
        {
          "internalType": "bytes32",
          "name": "s",
          "type": "bytes32"
        }
      ],
      "name": "ECDSAInvalidSignatureS",
      "type": "error"
    },
    {
      "inputs": [
        {
          "internalType": "address",
          "name": "sender",
          "type": "address"
        },
        {
          "internalType": "uint256",
          "name": "tokenId",
          "type": "uint256"
        },
        {
          "internalType": "address",
          "name": "owner",
          "type": "address"
        }
      ],
      "name": "ERC721IncorrectOwner",
      "type": "error"
    },
    {
      "inputs": [
        {
          "internalType": "address",
          "name": "operator",
          "type": "address"
        },
        {
          "internalType": "uint256",
          "name": "tokenId",
          "type": "uint256"
        }
      ],
      "name": "ERC721InsufficientApproval",
      "type": "error"
    },
    {
      "inputs": [
        {
          "internalType": "address",
          "name": "approver",
          "type": "address"
        }
      ],
      "name": "ERC721InvalidApprover",
      "type": "error"
    },
    {
      "inputs": [
        {
          "internalType": "address",
          "name": "operator",
          "type": "address"
        }
      ],
      "name": "ERC721InvalidOperator",
      "type": "error"
    },
    {
      "inputs": [
        {
          "internalType": "address",
          "name": "owner",
          "type": "address"
        }
      ],
      "name": "ERC721InvalidOwner",
      "type": "error"
    },
    {
      "inputs": [
        {
          "internalType": "address",
          "name": "receiver",
          "type": "address"
        }
      ],
      "name": "ERC721InvalidReceiver",
      "type": "error"
    },
    {
      "inputs": [
        {
          "internalType": "address",
          "name": "sender",
          "type": "address"
        }
      ],
      "name": "ERC721InvalidSender",
      "type": "error"
    },
    {
      "inputs": [
        {
          "internalType": "uint256",
          "name": "tokenId",
          "type": "uint256"
        }
      ],
      "name": "ERC721NonexistentToken",
      "type": "error"
    },
    {
      "inputs": [
        {
          "internalType": "address",
          "name": "owner",
          "type": "address"
        }
      ],
      "name": "OwnableInvalidOwner",
      "type": "error"
    },
    {
      "inputs": [
        {
          "internalType": "address",
          "name": "account",
          "type": "address"
        }
      ],
      "name": "OwnableUnauthorizedAccount",
      "type": "error"
    },
    {
      "anonymous": false,
      "inputs": [
        {
          "indexed": true,
          "internalType": "address",
          "name": "owner",
          "type": "address"
        },
        {
          "indexed": true,
          "internalType": "address",
          "name": "approved",
          "type": "address"
        },
        {
          "indexed": true,
          "internalType": "uint256",
          "name": "tokenId",
          "type": "uint256"
        }
      ],
      "name": "Approval",
      "type": "event"
    },
    {
      "anonymous": false,
      "inputs": [
        {
          "indexed": true,
          "internalType": "address",
          "name": "owner",
          "type": "address"
        },
        {
          "indexed": true,
          "internalType": "address",
          "name": "operator",
          "type": "address"
        },
        {
          "indexed": false,
          "internalType": "bool",
          "name": "approved",
          "type": "bool"
        }
      ],
      "name": "ApprovalForAll",
      "type": "event"
    },
    {
      "anonymous": false,
      "inputs": [
        {
          "indexed": true,
          "internalType": "address",
          "name": "previousOwner",
          "type": "address"
        },
        {
          "indexed": true,
          "internalType": "address",
          "name": "newOwner",
          "type": "address"
        }
      ],
      "name": "OwnershipTransferred",
      "type": "event"
    },
    {
      "anonymous": false,
      "inputs": [
        {
          "indexed": true,
          "internalType": "address",
          "name": "owner",
          "type": "address"
        },
        {
          "indexed": true,
          "internalType": "uint256",
          "name": "tokenId",
          "type": "uint256"
        },
        {
          "indexed": false,
          "internalType": "bool",
          "name": "isForSale",
          "type": "bool"
        }
      ],
      "name": "TicketForSale",
      "type": "event"
    },
    {
      "anonymous": false,
      "inputs": [
        {
          "indexed": true,
          "internalType": "address",
          "name": "to",
          "type": "address"
        },
        {
          "indexed": true,
          "internalType": "uint256",
          "name": "tokenId",
          "type": "uint256"
        },
        {
          "indexed": false,
          "internalType": "string",
          "name": "eventInfo",
          "type": "string"
        }
      ],
      "name": "TicketMinted",
      "type": "event"
    },
    {
      "anonymous": false,
      "inputs": [
        {
          "indexed": true,
          "internalType": "address",
          "name": "from",
          "type": "address"
        },
        {
          "indexed": true,
          "internalType": "address",
          "name": "to",
          "type": "address"
        },
        {
          "indexed": false,
          "internalType": "uint256",
          "name": "tokenId",
          "type": "uint256"
        }
      ],
      "name": "TicketTransferred",
      "type": "event"
    },
    {
      "anonymous": false,
      "inputs": [
        {
          "indexed": true,
          "internalType": "uint256",
          "name": "tokenId",
          "type": "uint256"
        },
        {
          "indexed": true,
          "internalType": "address",
          "name": "validatedBy",
          "type": "address"
        }
      ],
      "name": "TicketValidated",
      "type": "event"
    },
    {
      "anonymous": false,
      "inputs": [
        {
          "indexed": true,
          "internalType": "address",
          "name": "from",
          "type": "address"
        },
        {
          "indexed": true,
          "internalType": "address",
          "name": "to",
          "type": "address"
        },
        {
          "indexed": true,
          "internalType": "uint256",
          "name": "tokenId",
          "type": "uint256"
        }
      ],
      "name": "Transfer",
      "type": "event"
    },
    {
      "inputs": [
        {
          "internalType": "address",
          "name": "to",
          "type": "address"
        },
        {
          "internalType": "uint256",
          "name": "tokenId",
          "type": "uint256"
        }
      ],
      "name": "approve",
      "outputs": [],
      "stateMutability": "nonpayable",
      "type": "function"
    },
    {
      "inputs": [
        {
          "internalType": "address",
          "name": "owner",
          "type": "address"
        }
      ],
      "name": "balanceOf",
      "outputs": [
        {
          "internalType": "uint256",
          "name": "",
          "type": "uint256"
        }
      ],
      "stateMutability": "view",
      "type": "function"
    },
    {
      "inputs": [
        {
          "internalType": "uint256",
          "name": "tokenId",
          "type": "uint256"
        },
        {
          "internalType": "address",
          "name": "newOwner",
          "type": "address"
        }
      ],
      "name": "buyTicket",
      "outputs": [],
      "stateMutability": "payable",
      "type": "function"
    },
    {
      "inputs": [
        {
          "internalType": "uint256",
          "name": "",
          "type": "uint256"
        }
      ],
      "name": "eventInfo",
      "outputs": [
        {
          "internalType": "string",
          "name": "",
          "type": "string"
        }
      ],
      "stateMutability": "view",
      "type": "function"
    },
    {
      "inputs": [
        {
          "internalType": "uint256",
          "name": "",
          "type": "uint256"
        }
      ],
      "name": "eventOrganizer",
      "outputs": [
        {
          "internalType": "address",
          "name": "",
          "type": "address"
        }
      ],
      "stateMutability": "view",
      "type": "function"
    },
    {
      "inputs": [
        {
          "internalType": "uint256",
          "name": "tokenId",
          "type": "uint256"
        }
      ],
      "name": "getApproved",
      "outputs": [
        {
          "internalType": "address",
          "name": "",
          "type": "address"
        }
      ],
      "stateMutability": "view",
      "type": "function"
    },
    {
      "inputs": [
        {
          "internalType": "uint256",
          "name": "tokenId",
          "type": "uint256"
        }
      ],
      "name": "getTicketInfo",
      "outputs": [
        {
          "internalType": "string",
          "name": "",
          "type": "string"
        }
      ],
      "stateMutability": "view",
      "type": "function"
    },
    {
      "inputs": [
        {
          "internalType": "address",
          "name": "owner",
          "type": "address"
        },
        {
          "internalType": "address",
          "name": "operator",
          "type": "address"
        }
      ],
      "name": "isApprovedForAll",
      "outputs": [
        {
          "internalType": "bool",
          "name": "",
          "type": "bool"
        }
      ],
      "stateMutability": "view",
      "type": "function"
    },
    {
      "inputs": [
        {
          "internalType": "string",
          "name": "_eventInfo",
          "type": "string"
        },
        {
          "internalType": "address",
          "name": "systemWallet",
          "type": "address"
        }
      ],
      "name": "mintAndApprove",
      "outputs": [],
      "stateMutability": "nonpayable",
      "type": "function"
    },
    {
      "inputs": [],
      "name": "name",
      "outputs": [
        {
          "internalType": "string",
          "name": "",
          "type": "string"
        }
      ],
      "stateMutability": "view",
      "type": "function"
    },
    {
      "inputs": [],
      "name": "nextTokenId",
      "outputs": [
        {
          "internalType": "uint256",
          "name": "",
          "type": "uint256"
        }
      ],
      "stateMutability": "view",
      "type": "function"
    },
    {
      "inputs": [],
      "name": "owner",
      "outputs": [
        {
          "internalType": "address",
          "name": "",
          "type": "address"
        }
      ],
      "stateMutability": "view",
      "type": "function"
    },
    {
      "inputs": [
        {
          "internalType": "uint256",
          "name": "tokenId",
          "type": "uint256"
        }
      ],
      "name": "ownerOf",
      "outputs": [
        {
          "internalType": "address",
          "name": "",
          "type": "address"
        }
      ],
      "stateMutability": "view",
      "type": "function"
    },
    {
      "inputs": [],
      "name": "renounceOwnership",
      "outputs": [],
      "stateMutability": "nonpayable",
      "type": "function"
    },
    {
      "inputs": [
        {
          "internalType": "address",
          "name": "from",
          "type": "address"
        },
        {
          "internalType": "address",
          "name": "to",
          "type": "address"
        },
        {
          "internalType": "uint256",
          "name": "tokenId",
          "type": "uint256"
        }
      ],
      "name": "safeTransferFrom",
      "outputs": [],
      "stateMutability": "nonpayable",
      "type": "function"
    },
    {
      "inputs": [
        {
          "internalType": "address",
          "name": "from",
          "type": "address"
        },
        {
          "internalType": "address",
          "name": "to",
          "type": "address"
        },
        {
          "internalType": "uint256",
          "name": "tokenId",
          "type": "uint256"
        },
        {
          "internalType": "bytes",
          "name": "data",
          "type": "bytes"
        }
      ],
      "name": "safeTransferFrom",
      "outputs": [],
      "stateMutability": "nonpayable",
      "type": "function"
    },
    {
      "inputs": [
        {
          "internalType": "address",
          "name": "operator",
          "type": "address"
        },
        {
          "internalType": "bool",
          "name": "approved",
          "type": "bool"
        }
      ],
      "name": "setApprovalForAll",
      "outputs": [],
      "stateMutability": "nonpayable",
      "type": "function"
    },
    {
      "inputs": [
        {
          "internalType": "uint256",
          "name": "tokenId",
          "type": "uint256"
        },
        {
          "internalType": "uint256",
          "name": "price",
          "type": "uint256"
        }
      ],
      "name": "setTicketForSale",
      "outputs": [],
      "stateMutability": "nonpayable",
      "type": "function"
    },
    {
      "inputs": [
        {
          "internalType": "bytes4",
          "name": "interfaceId",
          "type": "bytes4"
        }
      ],
      "name": "supportsInterface",
      "outputs": [
        {
          "internalType": "bool",
          "name": "",
          "type": "bool"
        }
      ],
      "stateMutability": "view",
      "type": "function"
    },
    {
      "inputs": [],
      "name": "symbol",
      "outputs": [
        {
          "internalType": "string",
          "name": "",
          "type": "string"
        }
      ],
      "stateMutability": "view",
      "type": "function"
    },
    {
      "inputs": [
        {
          "internalType": "uint256",
          "name": "",
          "type": "uint256"
        }
      ],
      "name": "ticketPrice",
      "outputs": [
        {
          "internalType": "uint256",
          "name": "",
          "type": "uint256"
        }
      ],
      "stateMutability": "view",
      "type": "function"
    },
    {
      "inputs": [
        {
          "internalType": "uint256",
          "name": "",
          "type": "uint256"
        }
      ],
      "name": "ticketsForSale",
      "outputs": [
        {
          "internalType": "bool",
          "name": "",
          "type": "bool"
        }
      ],
      "stateMutability": "view",
      "type": "function"
    },
    {
      "inputs": [
        {
          "internalType": "uint256",
          "name": "",
          "type": "uint256"
        }
      ],
      "name": "ticketsUsed",
      "outputs": [
        {
          "internalType": "bool",
          "name": "",
          "type": "bool"
        }
      ],
      "stateMutability": "view",
      "type": "function"
    },
    {
      "inputs": [
        {
          "internalType": "uint256",
          "name": "tokenId",
          "type": "uint256"
        }
      ],
      "name": "tokenURI",
      "outputs": [
        {
          "internalType": "string",
          "name": "",
          "type": "string"
        }
      ],
      "stateMutability": "view",
      "type": "function"
    },
    {
      "inputs": [
        {
          "internalType": "address",
          "name": "from",
          "type": "address"
        },
        {
          "internalType": "address",
          "name": "to",
          "type": "address"
        },
        {
          "internalType": "uint256",
          "name": "tokenId",
          "type": "uint256"
        }
      ],
      "name": "transferFrom",
      "outputs": [],
      "stateMutability": "nonpayable",
      "type": "function"
    },
    {
      "inputs": [
        {
          "internalType": "address",
          "name": "newOwner",
          "type": "address"
        }
      ],
      "name": "transferOwnership",
      "outputs": [],
      "stateMutability": "nonpayable",
      "type": "function"
    },
    {
      "inputs": [
        {
          "internalType": "uint256",
          "name": "tokenId",
          "type": "uint256"
        }
      ],
      "name": "unsetTicketForSale",
      "outputs": [],
      "stateMutability": "nonpayable",
      "type": "function"
    },
    {
      "inputs": [
        {
          "internalType": "uint256",
          "name": "tokenId",
          "type": "uint256"
        },
        {
          "internalType": "uint256",
          "name": "nonce",
          "type": "uint256"
        },
        {
          "internalType": "uint256",
          "name": "expiration",
          "type": "uint256"
        },
        {
          "internalType": "bytes",
          "name": "signature",
          "type": "bytes"
        }
      ],
      "name": "validateWithSignature",
      "outputs": [],
      "stateMutability": "nonpayable",
      "type": "function"
    }
  ],
  "bytecode": "0x608060405234801561001057600080fd5b5060405161416038038061416083398181016040528101906100329190610272565b806040518060400160405280600581526020017f4d794e46540000000000000000000000000000000000000000000000000000008152506040518060400160405280600481526020017f4d4e46540000000000000000000000000000000000000000000000000000000081525081600090816100ae91906104ef565b5080600190816100be91906104ef565b505050600073ffffffffffffffffffffffffffffffffffffffff168173ffffffffffffffffffffffffffffffffffffffff16036101335760006040517f1e4fbdf700000000000000000000000000000000000000000000000000000000815260040161012a91906105d0565b60405180910390fd5b6101428161014960201b60201c565b50506105eb565b6000600660009054906101000a900473ffffffffffffffffffffffffffffffffffffffff16905081600660006101000a81548173ffffffffffffffffffffffffffffffffffffffff021916908373ffffffffffffffffffffffffffffffffffffffff1602179055508173ffffffffffffffffffffffffffffffffffffffff168173ffffffffffffffffffffffffffffffffffffffff167f8be0079c531659141344cd1fd0a4f28419497f9722a3daafe3b4186f6b6457e060405160405180910390a35050565b600080fd5b600073ffffffffffffffffffffffffffffffffffffffff82169050919050565b600061023f82610214565b9050919050565b61024f81610234565b811461025a57600080fd5b50565b60008151905061026c81610246565b92915050565b6000602082840312156102885761028761020f565b5b60006102968482850161025d565b91505092915050565b600081519050919050565b7f4e487b7100000000000000000000000000000000000000000000000000000000600052604160045260246000fd5b7f4e487b7100000000000000000000000000000000000000000000000000000000600052602260045260246000fd5b6000600282049050600182168061032057607f821691505b602082108103610333576103326102d9565b5b50919050565b60008190508160005260206000209050919050565b60006020601f8301049050919050565b600082821b905092915050565b60006008830261039b7fffffffffffffffffffffffffffffffffffffffffffffffffffffffffffffffff8261035e565b6103a5868361035e565b95508019841693508086168417925050509392505050565b6000819050919050565b6000819050919050565b60006103ec6103e76103e2846103bd565b6103c7565b6103bd565b9050919050565b6000819050919050565b610406836103d1565b61041a610412826103f3565b84845461036b565b825550505050565b600090565b61042f610422565b61043a8184846103fd565b505050565b5b8181101561045e57610453600082610427565b600181019050610440565b5050565b601f8211156104a35761047481610339565b61047d8461034e565b8101602085101561048c578190505b6104a06104988561034e565b83018261043f565b50505b505050565b600082821c905092915050565b60006104c6600019846008026104a8565b1980831691505092915050565b60006104df83836104b5565b9150826002028217905092915050565b6104f88261029f565b67ffffffffffffffff811115610511576105106102aa565b5b61051b8254610308565b610526828285610462565b600060209050601f8311600181146105595760008415610547578287015190505b61055185826104d3565b8655506105b9565b601f19841661056786610339565b60005b8281101561058f5784890151825560018201915060208501945060208101905061056a565b868310156105ac57848901516105a8601f8916826104b5565b8355505b6001600288020188555050505b505050505050565b6105ca81610234565b82525050565b60006020820190506105e560008301846105c1565b92915050565b613b66806105fa6000396000f3fe6080604052600436106101b75760003560e01c806375794a3c116100ec578063b88d4fde1161008a578063ef7c19e011610064578063ef7c19e014610645578063f2cbce5c1461066e578063f2fde38b146106ab578063ff99a063146106d4576101b7565b8063b88d4fde146105a2578063c87b56dd146105cb578063e985e9c514610608576101b7565b806395d89b41116100c657806395d89b41146104e85780639d0c025b14610513578063a22cb46514610550578063a49aa54414610579576101b7565b806375794a3c146104555780637ef3205d146104805780638da5cb5b146104bd576101b7565b80634db3e13a1161015957806367db1a521161013357806367db1a521461039b5780636933e79a146103d857806370a0823114610401578063715018a61461043e576101b7565b80634db3e13a1461031957806362a845ec146103425780636352211e1461035e576101b7565b8063095ea7b311610195578063095ea7b3146102615780630d93e6091461028a57806323b872dd146102c757806342842e0e146102f0576101b7565b806301ffc9a7146101bc57806306fdde03146101f9578063081812fc14610224575b600080fd5b3480156101c857600080fd5b506101e360048036038101906101de9190612a4c565b610711565b6040516101f09190612a94565b60405180910390f35b34801561020557600080fd5b5061020e6107f3565b60405161021b9190612b3f565b60405180910390f35b34801561023057600080fd5b5061024b60048036038101906102469190612b97565b610885565b6040516102589190612c05565b60405180910390f35b34801561026d57600080fd5b5061028860048036038101906102839190612c4c565b6108a1565b005b34801561029657600080fd5b506102b160048036038101906102ac9190612b97565b6108b7565b6040516102be9190612c9b565b60405180910390f35b3480156102d357600080fd5b506102ee60048036038101906102e99190612cb6565b6108cf565b005b3480156102fc57600080fd5b5061031760048036038101906103129190612cb6565b6109d1565b005b34801561032557600080fd5b50610340600480360381019061033b9190612b97565b6109f1565b005b61035c60048036038101906103579190612d09565b610aca565b005b34801561036a57600080fd5b5061038560048036038101906103809190612b97565b610ccd565b6040516103929190612c05565b60405180910390f35b3480156103a757600080fd5b506103c260048036038101906103bd9190612b97565b610cdf565b6040516103cf9190612c05565b60405180910390f35b3480156103e457600080fd5b506103ff60048036038101906103fa9190612e7e565b610d12565b005b34801561040d57600080fd5b5061042860048036038101906104239190612eda565b610e10565b6040516104359190612c9b565b60405180910390f35b34801561044a57600080fd5b50610453610eca565b005b34801561046157600080fd5b5061046a610ede565b6040516104779190612c9b565b60405180910390f35b34801561048c57600080fd5b506104a760048036038101906104a29190612b97565b610ee4565b6040516104b49190612a94565b60405180910390f35b3480156104c957600080fd5b506104d2610f04565b6040516104df9190612c05565b60405180910390f35b3480156104f457600080fd5b506104fd610f2e565b60405161050a9190612b3f565b60405180910390f35b34801561051f57600080fd5b5061053a60048036038101906105359190612b97565b610fc0565b6040516105479190612b3f565b60405180910390f35b34801561055c57600080fd5b5061057760048036038101906105729190612f33565b611060565b005b34801561058557600080fd5b506105a0600480360381019061059b9190612f73565b611076565b005b3480156105ae57600080fd5b506105c960048036038101906105c49190613054565b611168565b005b3480156105d757600080fd5b506105f260048036038101906105ed9190612b97565b61118d565b6040516105ff9190612b3f565b60405180910390f35b34801561061457600080fd5b5061062f600480360381019061062a91906130d7565b6111f6565b60405161063c9190612a94565b60405180910390f35b34801561065157600080fd5b5061066c60048036038101906106679190613117565b61128a565b005b34801561067a57600080fd5b5061069560048036038101906106909190612b97565b611503565b6040516106a29190612a94565b60405180910390f35b3480156106b757600080fd5b506106d260048036038101906106cd9190612eda565b611523565b005b3480156106e057600080fd5b506106fb60048036038101906106f69190612b97565b6115a9565b6040516107089190612b3f565b60405180910390f35b60007f80ac58cd000000000000000000000000000000000000000000000000000000007bffffffffffffffffffffffffffffffffffffffffffffffffffffffff1916827bffffffffffffffffffffffffffffffffffffffffffffffffffffffff191614806107dc57507f5b5e139f000000000000000000000000000000000000000000000000000000007bffffffffffffffffffffffffffffffffffffffffffffffffffffffff1916827bffffffffffffffffffffffffffffffffffffffffffffffffffffffff1916145b806107ec57506107eb8261164e565b5b9050919050565b606060008054610802906131c9565b80601f016020809104026020016040519081016040528092919081815260200182805461082e906131c9565b801561087b5780601f106108505761010080835404028352916020019161087b565b820191906000526020600020905b81548152906001019060200180831161085e57829003601f168201915b5050505050905090565b6000610890826116b8565b5061089a82611740565b9050919050565b6108b382826108ae61177d565b611785565b5050565b600b6020528060005260406000206000915090505481565b600073ffffffffffffffffffffffffffffffffffffffff168273ffffffffffffffffffffffffffffffffffffffff16036109415760006040517f64a0ae920000000000000000000000000000000000000000000000000000000081526004016109389190612c05565b60405180910390fd5b6000610955838361095061177d565b611797565b90508373ffffffffffffffffffffffffffffffffffffffff168173ffffffffffffffffffffffffffffffffffffffff16146109cb578382826040517f64283d7b0000000000000000000000000000000000000000000000000000000081526004016109c2939291906131fa565b60405180910390fd5b50505050565b6109ec83838360405180602001604052806000815250611168565b505050565b610a046109fd826119b1565b33836119ee565b610a43576040517f08c379a0000000000000000000000000000000000000000000000000000000008152600401610a3a9061327d565b60405180910390fd5b6000600a600083815260200190815260200160002060006101000a81548160ff02191690831515021790555080610a79826119b1565b73ffffffffffffffffffffffffffffffffffffffff167fc3c759f24b050ef26f9e798890dc3bec10e36b3c9df786cf5b0d1b7e83d9483c6000604051610abf9190612a94565b60405180910390a350565b610add610ad6836119b1565b33846119ee565b610b1c576040517f08c379a0000000000000000000000000000000000000000000000000000000008152600401610b139061327d565b60405180910390fd5b600a600083815260200190815260200160002060009054906101000a900460ff16610b7c576040517f08c379a0000000000000000000000000000000000000000000000000000000008152600401610b73906132e9565b60405180910390fd5b6000600b600084815260200190815260200160002054905080341015610bd7576040517f08c379a0000000000000000000000000000000000000000000000000000000008152600401610bce90613355565b60405180910390fd5b6000610be2846119b1565b9050610bef818486611aaf565b6000600a600086815260200190815260200160002060006101000a81548160ff0219169083151502179055508073ffffffffffffffffffffffffffffffffffffffff166108fc839081150290604051600060405180830381858888f19350505050158015610c61573d6000803e3d6000fd5b503373ffffffffffffffffffffffffffffffffffffffff168173ffffffffffffffffffffffffffffffffffffffff167f17fe3deddce525fa12700a731e77ea94c319000ee656076e9e3f0d21638db76686604051610cbf9190612c9b565b60405180910390a350505050565b6000610cd8826116b8565b9050919050565b60096020528060005260406000206000915054906101000a900473ffffffffffffffffffffffffffffffffffffffff1681565b610d1a611acf565b600060076000815480929190610d2f906133a4565b919050559050610d3f3382611b56565b82600860008381526020019081526020016000209081610d5f9190613598565b50336009600083815260200190815260200160002060006101000a81548173ffffffffffffffffffffffffffffffffffffffff021916908373ffffffffffffffffffffffffffffffffffffffff160217905550610dbc82826108a1565b803373ffffffffffffffffffffffffffffffffffffffff167ff16f1e8b680ea7f1e8a1f849eb82762cba60ddcef854d36909e3173483281c8c85604051610e039190612b3f565b60405180910390a3505050565b60008073ffffffffffffffffffffffffffffffffffffffff168273ffffffffffffffffffffffffffffffffffffffff1603610e835760006040517f89c62b64000000000000000000000000000000000000000000000000000000008152600401610e7a9190612c05565b60405180910390fd5b600360008373ffffffffffffffffffffffffffffffffffffffff1673ffffffffffffffffffffffffffffffffffffffff168152602001908152602001600020549050919050565b610ed2611acf565b610edc6000611b74565b565b60075481565b600a6020528060005260406000206000915054906101000a900460ff1681565b6000600660009054906101000a900473ffffffffffffffffffffffffffffffffffffffff16905090565b606060018054610f3d906131c9565b80601f0160208091040260200160405190810160405280929190818152602001828054610f69906131c9565b8015610fb65780601f10610f8b57610100808354040283529160200191610fb6565b820191906000526020600020905b815481529060010190602001808311610f9957829003601f168201915b5050505050905090565b60086020528060005260406000206000915090508054610fdf906131c9565b80601f016020809104026020016040519081016040528092919081815260200182805461100b906131c9565b80156110585780601f1061102d57610100808354040283529160200191611058565b820191906000526020600020905b81548152906001019060200180831161103b57829003601f168201915b505050505081565b61107261106b61177d565b8383611c3a565b5050565b611089611082836119b1565b33846119ee565b6110c8576040517f08c379a00000000000000000000000000000000000000000000000000000000081526004016110bf9061327d565b60405180910390fd5b6001600a600084815260200190815260200160002060006101000a81548160ff02191690831515021790555080600b60008481526020019081526020016000208190555081611116836119b1565b73ffffffffffffffffffffffffffffffffffffffff167fc3c759f24b050ef26f9e798890dc3bec10e36b3c9df786cf5b0d1b7e83d9483c600160405161115c9190612a94565b60405180910390a35050565b6111738484846108cf565b61118761117e61177d565b85858585611da9565b50505050565b6060611198826116b8565b5060006111a3611f5a565b905060008151116111c357604051806020016040528060008152506111ee565b806111cd84611f71565b6040516020016111de9291906136a6565b6040516020818303038152906040525b915050919050565b6000600560008473ffffffffffffffffffffffffffffffffffffffff1673ffffffffffffffffffffffffffffffffffffffff16815260200190815260200160002060008373ffffffffffffffffffffffffffffffffffffffff1673ffffffffffffffffffffffffffffffffffffffff16815260200190815260200160002060009054906101000a900460ff16905092915050565b8142106112cc576040517f08c379a00000000000000000000000000000000000000000000000000000000081526004016112c390613716565b60405180910390fd5b600c600085815260200190815260200160002060009054906101000a900460ff161561132d576040517f08c379a000000000000000000000000000000000000000000000000000000000815260040161132490613782565b60405180910390fd5b600030858585604051602001611346949392919061380b565b604051602081830303815290604052805190602001209050600061137261136c8361203f565b84612075565b905061137d86610ccd565b73ffffffffffffffffffffffffffffffffffffffff168173ffffffffffffffffffffffffffffffffffffffff16146113ea576040517f08c379a00000000000000000000000000000000000000000000000000000000081526004016113e1906138a5565b60405180910390fd5b6009600087815260200190815260200160002060009054906101000a900473ffffffffffffffffffffffffffffffffffffffff1673ffffffffffffffffffffffffffffffffffffffff163373ffffffffffffffffffffffffffffffffffffffff161461148b576040517f08c379a000000000000000000000000000000000000000000000000000000000815260040161148290613911565b60405180910390fd5b6001600c600088815260200190815260200160002060006101000a81548160ff0219169083151502179055503373ffffffffffffffffffffffffffffffffffffffff16867f7523a5038b0221808d5987c7a4c3a6d9074ed76bf247f76665b2ed493e8fd1fb60405160405180910390a3505050505050565b600c6020528060005260406000206000915054906101000a900460ff1681565b61152b611acf565b600073ffffffffffffffffffffffffffffffffffffffff168173ffffffffffffffffffffffffffffffffffffffff160361159d5760006040517f1e4fbdf70000000000000000000000000000000000000000000000000000000081526004016115949190612c05565b60405180910390fd5b6115a681611b74565b50565b60606008600083815260200190815260200160002080546115c9906131c9565b80601f01602080910402602001604051908101604052809291908181526020018280546115f5906131c9565b80156116425780601f1061161757610100808354040283529160200191611642565b820191906000526020600020905b81548152906001019060200180831161162557829003601f168201915b50505050509050919050565b60007f01ffc9a7000000000000000000000000000000000000000000000000000000007bffffffffffffffffffffffffffffffffffffffffffffffffffffffff1916827bffffffffffffffffffffffffffffffffffffffffffffffffffffffff1916149050919050565b6000806116c4836119b1565b9050600073ffffffffffffffffffffffffffffffffffffffff168173ffffffffffffffffffffffffffffffffffffffff160361173757826040517f7e27328900000000000000000000000000000000000000000000000000000000815260040161172e9190612c9b565b60405180910390fd5b80915050919050565b60006004600083815260200190815260200160002060009054906101000a900473ffffffffffffffffffffffffffffffffffffffff169050919050565b600033905090565b61179283838360016120a1565b505050565b6000806117a3846119b1565b9050600073ffffffffffffffffffffffffffffffffffffffff168373ffffffffffffffffffffffffffffffffffffffff16146117e5576117e4818486612266565b5b600073ffffffffffffffffffffffffffffffffffffffff168173ffffffffffffffffffffffffffffffffffffffff1614611876576118276000856000806120a1565b6001600360008373ffffffffffffffffffffffffffffffffffffffff1673ffffffffffffffffffffffffffffffffffffffff168152602001908152602001600020600082825403925050819055505b600073ffffffffffffffffffffffffffffffffffffffff168573ffffffffffffffffffffffffffffffffffffffff16146118f9576001600360008773ffffffffffffffffffffffffffffffffffffffff1673ffffffffffffffffffffffffffffffffffffffff168152602001908152602001600020600082825401925050819055505b846002600086815260200190815260200160002060006101000a81548173ffffffffffffffffffffffffffffffffffffffff021916908373ffffffffffffffffffffffffffffffffffffffff160217905550838573ffffffffffffffffffffffffffffffffffffffff168273ffffffffffffffffffffffffffffffffffffffff167fddf252ad1be2c89b69c2b068fc378daa952ba7f163c4a11628f55a4df523b3ef60405160405180910390a4809150509392505050565b60006002600083815260200190815260200160002060009054906101000a900473ffffffffffffffffffffffffffffffffffffffff169050919050565b60008073ffffffffffffffffffffffffffffffffffffffff168373ffffffffffffffffffffffffffffffffffffffff1614158015611aa657508273ffffffffffffffffffffffffffffffffffffffff168473ffffffffffffffffffffffffffffffffffffffff161480611a675750611a6684846111f6565b5b80611aa557508273ffffffffffffffffffffffffffffffffffffffff16611a8d83611740565b73ffffffffffffffffffffffffffffffffffffffff16145b5b90509392505050565b611aca8383836040518060200160405280600081525061232a565b505050565b611ad761177d565b73ffffffffffffffffffffffffffffffffffffffff16611af5610f04565b73ffffffffffffffffffffffffffffffffffffffff1614611b5457611b1861177d565b6040517f118cdaa7000000000000000000000000000000000000000000000000000000008152600401611b4b9190612c05565b60405180910390fd5b565b611b7082826040518060200160405280600081525061234f565b5050565b6000600660009054906101000a900473ffffffffffffffffffffffffffffffffffffffff16905081600660006101000a81548173ffffffffffffffffffffffffffffffffffffffff021916908373ffffffffffffffffffffffffffffffffffffffff1602179055508173ffffffffffffffffffffffffffffffffffffffff168173ffffffffffffffffffffffffffffffffffffffff167f8be0079c531659141344cd1fd0a4f28419497f9722a3daafe3b4186f6b6457e060405160405180910390a35050565b600073ffffffffffffffffffffffffffffffffffffffff168273ffffffffffffffffffffffffffffffffffffffff1603611cab57816040517f5b08ba18000000000000000000000000000000000000000000000000000000008152600401611ca29190612c05565b60405180910390fd5b80600560008573ffffffffffffffffffffffffffffffffffffffff1673ffffffffffffffffffffffffffffffffffffffff16815260200190815260200160002060008473ffffffffffffffffffffffffffffffffffffffff1673ffffffffffffffffffffffffffffffffffffffff16815260200190815260200160002060006101000a81548160ff0219169083151502179055508173ffffffffffffffffffffffffffffffffffffffff168373ffffffffffffffffffffffffffffffffffffffff167f17307eab39ab6107e8899845ad3d59bd9653f200f220920489ca2b5937696c3183604051611d9c9190612a94565b60405180910390a3505050565b60008373ffffffffffffffffffffffffffffffffffffffff163b1115611f53578273ffffffffffffffffffffffffffffffffffffffff1663150b7a02868685856040518563ffffffff1660e01b8152600401611e089493929190613986565b6020604051808303816000875af1925050508015611e4457506040513d601f19601f82011682018060405250810190611e4191906139e7565b60015b611ec8573d8060008114611e74576040519150601f19603f3d011682016040523d82523d6000602084013e611e79565b606091505b506000815103611ec057836040517f64a0ae92000000000000000000000000000000000000000000000000000000008152600401611eb79190612c05565b60405180910390fd5b805181602001fd5b63150b7a0260e01b7bffffffffffffffffffffffffffffffffffffffffffffffffffffffff1916817bffffffffffffffffffffffffffffffffffffffffffffffffffffffff191614611f5157836040517f64a0ae92000000000000000000000000000000000000000000000000000000008152600401611f489190612c05565b60405180910390fd5b505b5050505050565b606060405180602001604052806000815250905090565b606060006001611f8084612373565b01905060008167ffffffffffffffff811115611f9f57611f9e612d53565b5b6040519080825280601f01601f191660200182016040528015611fd15781602001600182028036833780820191505090505b509050600082602001820190505b600115612034578080600190039150507f3031323334353637383961626364656600000000000000000000000000000000600a86061a8153600a858161202857612027613a14565b5b04945060008503611fdf575b819350505050919050565b60007f19457468657265756d205369676e6564204d6573736167653a0a33320000000060005281601c52603c6000209050919050565b60008060008061208586866124c6565b9250925092506120958282612522565b82935050505092915050565b80806120da5750600073ffffffffffffffffffffffffffffffffffffffff168273ffffffffffffffffffffffffffffffffffffffff1614155b1561220e5760006120ea846116b8565b9050600073ffffffffffffffffffffffffffffffffffffffff168373ffffffffffffffffffffffffffffffffffffffff161415801561215557508273ffffffffffffffffffffffffffffffffffffffff168173ffffffffffffffffffffffffffffffffffffffff1614155b8015612168575061216681846111f6565b155b156121aa57826040517fa9fbf51f0000000000000000000000000000000000000000000000000000000081526004016121a19190612c05565b60405180910390fd5b811561220c57838573ffffffffffffffffffffffffffffffffffffffff168273ffffffffffffffffffffffffffffffffffffffff167f8c5be1e5ebec7d5bd14f71427d1e84f3dd0314c0f7b2291e5b200ac8c7c3b92560405160405180910390a45b505b836004600085815260200190815260200160002060006101000a81548173ffffffffffffffffffffffffffffffffffffffff021916908373ffffffffffffffffffffffffffffffffffffffff16021790555050505050565b6122718383836119ee565b61232557600073ffffffffffffffffffffffffffffffffffffffff168373ffffffffffffffffffffffffffffffffffffffff16036122e657806040517f7e2732890000000000000000000000000000000000000000000000000000000081526004016122dd9190612c9b565b60405180910390fd5b81816040517f177e802f00000000000000000000000000000000000000000000000000000000815260040161231c929190613a43565b60405180910390fd5b505050565b612335848484612686565b61234961234061177d565b85858585611da9565b50505050565b61235983836127f3565b61236e61236461177d565b6000858585611da9565b505050565b600080600090507a184f03e93ff9f4daa797ed6e38ed64bf6a1f01000000000000000083106123d1577a184f03e93ff9f4daa797ed6e38ed64bf6a1f01000000000000000083816123c7576123c6613a14565b5b0492506040810190505b6d04ee2d6d415b85acef8100000000831061240e576d04ee2d6d415b85acef8100000000838161240457612403613a14565b5b0492506020810190505b662386f26fc10000831061243d57662386f26fc10000838161243357612432613a14565b5b0492506010810190505b6305f5e1008310612466576305f5e100838161245c5761245b613a14565b5b0492506008810190505b612710831061248b57612710838161248157612480613a14565b5b0492506004810190505b606483106124ae57606483816124a4576124a3613a14565b5b0492506002810190505b600a83106124bd576001810190505b80915050919050565b6000806000604184510361250b5760008060006020870151925060408701519150606087015160001a90506124fd888285856128ec565b95509550955050505061251b565b60006002855160001b9250925092505b9250925092565b6000600381111561253657612535613a6c565b5b82600381111561254957612548613a6c565b5b0315612682576001600381111561256357612562613a6c565b5b82600381111561257657612575613a6c565b5b036125ad576040517ff645eedf00000000000000000000000000000000000000000000000000000000815260040160405180910390fd5b600260038111156125c1576125c0613a6c565b5b8260038111156125d4576125d3613a6c565b5b03612619578060001c6040517ffce698f70000000000000000000000000000000000000000000000000000000081526004016126109190612c9b565b60405180910390fd5b60038081111561262c5761262b613a6c565b5b82600381111561263f5761263e613a6c565b5b0361268157806040517fd78bce0c0000000000000000000000000000000000000000000000000000000081526004016126789190613ab4565b60405180910390fd5b5b5050565b600073ffffffffffffffffffffffffffffffffffffffff168273ffffffffffffffffffffffffffffffffffffffff16036126f85760006040517f64a0ae920000000000000000000000000000000000000000000000000000000081526004016126ef9190612c05565b60405180910390fd5b600061270683836000611797565b9050600073ffffffffffffffffffffffffffffffffffffffff168173ffffffffffffffffffffffffffffffffffffffff160361277957816040517f7e2732890000000000000000000000000000000000000000000000000000000081526004016127709190612c9b565b60405180910390fd5b8373ffffffffffffffffffffffffffffffffffffffff168173ffffffffffffffffffffffffffffffffffffffff16146127ed578382826040517f64283d7b0000000000000000000000000000000000000000000000000000000081526004016127e4939291906131fa565b60405180910390fd5b50505050565b600073ffffffffffffffffffffffffffffffffffffffff168273ffffffffffffffffffffffffffffffffffffffff16036128655760006040517f64a0ae9200000000000000000000000000000000000000000000000000000000815260040161285c9190612c05565b60405180910390fd5b600061287383836000611797565b9050600073ffffffffffffffffffffffffffffffffffffffff168173ffffffffffffffffffffffffffffffffffffffff16146128e75760006040517f73c6ac6e0000000000000000000000000000000000000000000000000000000081526004016128de9190612c05565b60405180910390fd5b505050565b60008060007f7fffffffffffffffffffffffffffffff5d576e7357a4501ddfe92f46681b20a08460001c111561292c5760006003859250925092506129d6565b6000600188888888604051600081526020016040526040516129519493929190613aeb565b6020604051602081039080840390855afa158015612973573d6000803e3d6000fd5b505050602060405103519050600073ffffffffffffffffffffffffffffffffffffffff168173ffffffffffffffffffffffffffffffffffffffff16036129c757600060016000801b935093509350506129d6565b8060008060001b935093509350505b9450945094915050565b6000604051905090565b600080fd5b600080fd5b60007fffffffff0000000000000000000000000000000000000000000000000000000082169050919050565b612a29816129f4565b8114612a3457600080fd5b50565b600081359050612a4681612a20565b92915050565b600060208284031215612a6257612a616129ea565b5b6000612a7084828501612a37565b91505092915050565b60008115159050919050565b612a8e81612a79565b82525050565b6000602082019050612aa96000830184612a85565b92915050565b600081519050919050565b600082825260208201905092915050565b60005b83811015612ae9578082015181840152602081019050612ace565b60008484015250505050565b6000601f19601f8301169050919050565b6000612b1182612aaf565b612b1b8185612aba565b9350612b2b818560208601612acb565b612b3481612af5565b840191505092915050565b60006020820190508181036000830152612b598184612b06565b905092915050565b6000819050919050565b612b7481612b61565b8114612b7f57600080fd5b50565b600081359050612b9181612b6b565b92915050565b600060208284031215612bad57612bac6129ea565b5b6000612bbb84828501612b82565b91505092915050565b600073ffffffffffffffffffffffffffffffffffffffff82169050919050565b6000612bef82612bc4565b9050919050565b612bff81612be4565b82525050565b6000602082019050612c1a6000830184612bf6565b92915050565b612c2981612be4565b8114612c3457600080fd5b50565b600081359050612c4681612c20565b92915050565b60008060408385031215612c6357612c626129ea565b5b6000612c7185828601612c37565b9250506020612c8285828601612b82565b9150509250929050565b612c9581612b61565b82525050565b6000602082019050612cb06000830184612c8c565b92915050565b600080600060608486031215612ccf57612cce6129ea565b5b6000612cdd86828701612c37565b9350506020612cee86828701612c37565b9250506040612cff86828701612b82565b9150509250925092565b60008060408385031215612d2057612d1f6129ea565b5b6000612d2e85828601612b82565b9250506020612d3f85828601612c37565b9150509250929050565b600080fd5b600080fd5b7f4e487b7100000000000000000000000000000000000000000000000000000000600052604160045260246000fd5b612d8b82612af5565b810181811067ffffffffffffffff82111715612daa57612da9612d53565b5b80604052505050565b6000612dbd6129e0565b9050612dc98282612d82565b919050565b600067ffffffffffffffff821115612de957612de8612d53565b5b612df282612af5565b9050602081019050919050565b82818337600083830152505050565b6000612e21612e1c84612dce565b612db3565b905082815260208101848484011115612e3d57612e3c612d4e565b5b612e48848285612dff565b509392505050565b600082601f830112612e6557612e64612d49565b5b8135612e75848260208601612e0e565b91505092915050565b60008060408385031215612e9557612e946129ea565b5b600083013567ffffffffffffffff811115612eb357612eb26129ef565b5b612ebf85828601612e50565b9250506020612ed085828601612c37565b9150509250929050565b600060208284031215612ef057612eef6129ea565b5b6000612efe84828501612c37565b91505092915050565b612f1081612a79565b8114612f1b57600080fd5b50565b600081359050612f2d81612f07565b92915050565b60008060408385031215612f4a57612f496129ea565b5b6000612f5885828601612c37565b9250506020612f6985828601612f1e565b9150509250929050565b60008060408385031215612f8a57612f896129ea565b5b6000612f9885828601612b82565b9250506020612fa985828601612b82565b9150509250929050565b600067ffffffffffffffff821115612fce57612fcd612d53565b5b612fd782612af5565b9050602081019050919050565b6000612ff7612ff284612fb3565b612db3565b90508281526020810184848401111561301357613012612d4e565b5b61301e848285612dff565b509392505050565b600082601f83011261303b5761303a612d49565b5b813561304b848260208601612fe4565b91505092915050565b6000806000806080858703121561306e5761306d6129ea565b5b600061307c87828801612c37565b945050602061308d87828801612c37565b935050604061309e87828801612b82565b925050606085013567ffffffffffffffff8111156130bf576130be6129ef565b5b6130cb87828801613026565b91505092959194509250565b600080604083850312156130ee576130ed6129ea565b5b60006130fc85828601612c37565b925050602061310d85828601612c37565b9150509250929050565b60008060008060808587031215613131576131306129ea565b5b600061313f87828801612b82565b945050602061315087828801612b82565b935050604061316187828801612b82565b925050606085013567ffffffffffffffff811115613182576131816129ef565b5b61318e87828801613026565b91505092959194509250565b7f4e487b7100000000000000000000000000000000000000000000000000000000600052602260045260246000fd5b600060028204905060018216806131e157607f821691505b6020821081036131f4576131f361319a565b5b50919050565b600060608201905061320f6000830186612bf6565b61321c6020830185612c8c565b6132296040830184612bf6565b949350505050565b7f4e6f7420617574686f72697a6564000000000000000000000000000000000000600082015250565b6000613267600e83612aba565b915061327282613231565b602082019050919050565b600060208201905081810360008301526132968161325a565b9050919050565b7f5469636b6574206e6f7420666f722073616c6500000000000000000000000000600082015250565b60006132d3601383612aba565b91506132de8261329d565b602082019050919050565b60006020820190508181036000830152613302816132c6565b9050919050565b7f496e73756666696369656e74207061796d656e74000000000000000000000000600082015250565b600061333f601483612aba565b915061334a82613309565b602082019050919050565b6000602082019050818103600083015261336e81613332565b9050919050565b7f4e487b7100000000000000000000000000000000000000000000000000000000600052601160045260246000fd5b60006133af82612b61565b91507fffffffffffffffffffffffffffffffffffffffffffffffffffffffffffffffff82036133e1576133e0613375565b5b600182019050919050565b60008190508160005260206000209050919050565b60006020601f8301049050919050565b600082821b905092915050565b60006008830261344e7fffffffffffffffffffffffffffffffffffffffffffffffffffffffffffffffff82613411565b6134588683613411565b95508019841693508086168417925050509392505050565b6000819050919050565b600061349561349061348b84612b61565b613470565b612b61565b9050919050565b6000819050919050565b6134af8361347a565b6134c36134bb8261349c565b84845461341e565b825550505050565b600090565b6134d86134cb565b6134e38184846134a6565b505050565b5b81811015613507576134fc6000826134d0565b6001810190506134e9565b5050565b601f82111561354c5761351d816133ec565b61352684613401565b81016020851015613535578190505b61354961354185613401565b8301826134e8565b50505b505050565b600082821c905092915050565b600061356f60001984600802613551565b1980831691505092915050565b6000613588838361355e565b9150826002028217905092915050565b6135a182612aaf565b67ffffffffffffffff8111156135ba576135b9612d53565b5b6135c482546131c9565b6135cf82828561350b565b600060209050601f83116001811461360257600084156135f0578287015190505b6135fa858261357c565b865550613662565b601f198416613610866133ec565b60005b8281101561363857848901518255600182019150602085019450602081019050613613565b868310156136555784890151613651601f89168261355e565b8355505b6001600288020188555050505b505050505050565b600081905092915050565b600061368082612aaf565b61368a818561366a565b935061369a818560208601612acb565b80840191505092915050565b60006136b28285613675565b91506136be8284613675565b91508190509392505050565b7f5152206578706972656400000000000000000000000000000000000000000000600082015250565b6000613700600a83612aba565b915061370b826136ca565b602082019050919050565b6000602082019050818103600083015261372f816136f3565b9050919050565b7f5469636b657420616c7265616479207573656400000000000000000000000000600082015250565b600061376c601383612aba565b915061377782613736565b602082019050919050565b6000602082019050818103600083015261379b8161375f565b9050919050565b60008160601b9050919050565b60006137ba826137a2565b9050919050565b60006137cc826137af565b9050919050565b6137e46137df82612be4565b6137c1565b82525050565b6000819050919050565b61380561380082612b61565b6137ea565b82525050565b600061381782876137d3565b60148201915061382782866137f4565b60208201915061383782856137f4565b60208201915061384782846137f4565b60208201915081905095945050505050565b7f496e76616c6964207369676e6174757265000000000000000000000000000000600082015250565b600061388f601183612aba565b915061389a82613859565b602082019050919050565b600060208201905081810360008301526138be81613882565b9050919050565b7f4e6f74206576656e74206f7267616e697a657200000000000000000000000000600082015250565b60006138fb601383612aba565b9150613906826138c5565b602082019050919050565b6000602082019050818103600083015261392a816138ee565b9050919050565b600081519050919050565b600082825260208201905092915050565b600061395882613931565b613962818561393c565b9350613972818560208601612acb565b61397b81612af5565b840191505092915050565b600060808201905061399b6000830187612bf6565b6139a86020830186612bf6565b6139b56040830185612c8c565b81810360608301526139c7818461394d565b905095945050505050565b6000815190506139e181612a20565b92915050565b6000602082840312156139fd576139fc6129ea565b5b6000613a0b848285016139d2565b91505092915050565b7f4e487b7100000000000000000000000000000000000000000000000000000000600052601260045260246000fd5b6000604082019050613a586000830185612bf6565b613a656020830184612c8c565b9392505050565b7f4e487b7100000000000000000000000000000000000000000000000000000000600052602160045260246000fd5b6000819050919050565b613aae81613a9b565b82525050565b6000602082019050613ac96000830184613aa5565b92915050565b600060ff82169050919050565b613ae581613acf565b82525050565b6000608082019050613b006000830187613aa5565b613b0d6020830186613adc565b613b1a6040830185613aa5565b613b276060830184613aa5565b9594505050505056fea264697066735822122014bc70c357ea58878b2db4e7456f79f50af342ec82c17ee90072986c2d08966064736f6c634300081c0033",
  "linkReferences": {},
  "deployedLinkReferences": {}
}